{
  "contracts/FeeManager.sol": {
    "FeeManager": {
      "abi": [
        {
          "inputs": [
            {
              "internalType": "uint64",
              "name": "dailyPositionFee",
              "type": "uint64"
            },
            {
              "internalType": "uint64",
              "name": "executionFee",
              "type": "uint64"
            },
            {
              "internalType": "address",
              "name": "initialOwner",
              "type": "address"
            }
          ],
          "stateMutability": "nonpayable",
          "type": "constructor"
        },
        {
          "inputs": [
            {
              "internalType": "address",
              "name": "owner",
              "type": "address"
            }
          ],
          "name": "OwnableInvalidOwner",
          "type": "error"
        },
        {
          "inputs": [
            {
              "internalType": "address",
              "name": "account",
              "type": "address"
            }
          ],
          "name": "OwnableUnauthorizedAccount",
          "type": "error"
        },
        {
          "anonymous": false,
          "inputs": [
            {
              "indexed": false,
              "internalType": "address",
              "name": "dexRouter",
              "type": "address"
            }
          ],
          "name": "DexRouterWhitelisted",
          "type": "event"
        },
        {
          "anonymous": false,
          "inputs": [
            {
              "indexed": false,
              "internalType": "bytes",
              "name": "data",
              "type": "bytes"
            }
          ],
          "name": "LogBytes",
          "type": "event"
        },
        {
          "anonymous": false,
          "inputs": [
            {
              "indexed": true,
              "internalType": "address",
              "name": "previousOwner",
              "type": "address"
            },
            {
              "indexed": true,
              "internalType": "address",
              "name": "newOwner",
              "type": "address"
            }
          ],
          "name": "OwnershipTransferred",
          "type": "event"
        },
        {
          "inputs": [
            {
              "internalType": "uint64",
              "name": "newFee",
              "type": "uint64"
            }
          ],
          "name": "changeDailyPositionFee",
          "outputs": [],
          "stateMutability": "nonpayable",
          "type": "function"
        },
        {
          "inputs": [
            {
              "internalType": "uint64",
              "name": "newFee",
              "type": "uint64"
            }
          ],
          "name": "changeExecutionFee",
          "outputs": [],
          "stateMutability": "nonpayable",
          "type": "function"
        },
        {
          "inputs": [
            {
              "internalType": "address",
              "name": "dexRouter",
              "type": "address"
            },
            {
              "internalType": "enum DexChecker.UniswapABI",
              "name": "dexType",
              "type": "uint8"
            },
            {
              "internalType": "address",
              "name": "tokenIn",
              "type": "address"
            },
            {
              "internalType": "address",
              "name": "tokenOut",
              "type": "address"
            }
          ],
          "name": "doesPoolExist",
          "outputs": [
            {
              "internalType": "bool",
              "name": "",
              "type": "bool"
            },
            {
              "internalType": "uint24",
              "name": "",
              "type": "uint24"
            }
          ],
          "stateMutability": "view",
          "type": "function"
        },
        {
          "inputs": [],
          "name": "getDailyPositionFee",
          "outputs": [
            {
              "internalType": "uint256",
              "name": "",
              "type": "uint256"
            }
          ],
          "stateMutability": "view",
          "type": "function"
        },
        {
          "inputs": [],
          "name": "getExecutionFee",
          "outputs": [
            {
              "internalType": "uint256",
              "name": "",
              "type": "uint256"
            }
          ],
          "stateMutability": "view",
          "type": "function"
        },
        {
          "inputs": [
            {
              "internalType": "uint256",
              "name": "duration",
              "type": "uint256"
            }
          ],
          "name": "getExpectedFee",
          "outputs": [
            {
              "internalType": "uint256",
              "name": "",
              "type": "uint256"
            }
          ],
          "stateMutability": "view",
          "type": "function"
        },
        {
          "inputs": [
            {
              "internalType": "address",
              "name": "dex",
              "type": "address"
            }
          ],
          "name": "isValidUniswapFork",
          "outputs": [
            {
              "internalType": "enum DexChecker.UniswapABI",
              "name": "",
              "type": "uint8"
            }
          ],
          "stateMutability": "view",
          "type": "function"
        },
        {
          "inputs": [],
          "name": "owner",
          "outputs": [
            {
              "internalType": "address",
              "name": "",
              "type": "address"
            }
          ],
          "stateMutability": "view",
          "type": "function"
        },
        {
          "inputs": [],
          "name": "renounceOwnership",
          "outputs": [],
          "stateMutability": "nonpayable",
          "type": "function"
        },
        {
          "inputs": [
            {
              "internalType": "address",
              "name": "newOwner",
              "type": "address"
            }
          ],
          "name": "transferOwnership",
          "outputs": [],
          "stateMutability": "nonpayable",
          "type": "function"
        },
        {
          "inputs": [
            {
              "internalType": "address",
              "name": "dexRouter",
              "type": "address"
            }
          ],
          "name": "whitelistDexRouter",
          "outputs": [],
          "stateMutability": "nonpayable",
          "type": "function"
        },
        {
          "inputs": [
            {
              "internalType": "address",
              "name": "",
              "type": "address"
            }
          ],
          "name": "whitelistedDexes",
          "outputs": [
            {
              "internalType": "bool",
              "name": "isWhitelisted",
              "type": "bool"
            },
            {
              "internalType": "enum DexChecker.UniswapABI",
              "name": "dexType",
              "type": "uint8"
            }
          ],
          "stateMutability": "view",
          "type": "function"
        }
      ],
      "evm": {
        "bytecode": {
          "linkReferences": {},
          "object": "60806040523480156200001157600080fd5b50604051620016583803806200165883398181016040528101906200003791906200028f565b8080600073ffffffffffffffffffffffffffffffffffffffff168173ffffffffffffffffffffffffffffffffffffffff1603620000ae5760006040517f1e4fbdf7000000000000000000000000000000000000000000000000000000008152600401620000a59190620002fc565b60405180910390fd5b620000bf816200011c60201b60201c565b505082600260006101000a81548167ffffffffffffffff021916908367ffffffffffffffff16021790555081600260086101000a81548167ffffffffffffffff021916908367ffffffffffffffff16021790555050505062000319565b60008060009054906101000a900473ffffffffffffffffffffffffffffffffffffffff169050816000806101000a81548173ffffffffffffffffffffffffffffffffffffffff021916908373ffffffffffffffffffffffffffffffffffffffff1602179055508173ffffffffffffffffffffffffffffffffffffffff168173ffffffffffffffffffffffffffffffffffffffff167f8be0079c531659141344cd1fd0a4f28419497f9722a3daafe3b4186f6b6457e060405160405180910390a35050565b600080fd5b600067ffffffffffffffff82169050919050565b6200020481620001e5565b81146200021057600080fd5b50565b6000815190506200022481620001f9565b92915050565b600073ffffffffffffffffffffffffffffffffffffffff82169050919050565b600062000257826200022a565b9050919050565b62000269816200024a565b81146200027557600080fd5b50565b60008151905062000289816200025e565b92915050565b600080600060608486031215620002ab57620002aa620001e0565b5b6000620002bb8682870162000213565b9350506020620002ce8682870162000213565b9250506040620002e18682870162000278565b9150509250925092565b620002f6816200024a565b82525050565b6000602082019050620003136000830184620002eb565b92915050565b61132f80620003296000396000f3fe608060405234801561001057600080fd5b50600436106100b45760003560e01c8063897293a411610071578063897293a41461018d5780638da5cb5b146101ab578063cc506f35146101c9578063efb7c45f146101e7578063f2fde38b14610203578063f3aaafbf1461021f576100b4565b80630ec1f8bf146100b95780631c135c4e146100d557806334af43be146101065780634525eeb214610122578063715018a6146101535780637c3103251461015d575b600080fd5b6100d360048036038101906100ce9190610cb1565b61024f565b005b6100ef60048036038101906100ea9190610d61565b610283565b6040516100fd929190610e01565b60405180910390f35b610120600480360381019061011b9190610cb1565b610316565b005b61013c60048036038101906101379190610e2a565b61034a565b60405161014a929190610ece565b60405180910390f35b61015b610388565b005b61017760048036038101906101729190610e2a565b61039c565b6040516101849190610ef7565b60405180910390f35b610195610502565b6040516101a29190610f2b565b60405180910390f35b6101b361052a565b6040516101c09190610f55565b60405180910390f35b6101d1610553565b6040516101de9190610f2b565b60405180910390f35b61020160048036038101906101fc9190610e2a565b61057b565b005b61021d60048036038101906102189190610e2a565b610687565b005b61023960048036038101906102349190610f9c565b61070d565b6040516102469190610f2b565b60405180910390f35b61025761073b565b80600260086101000a81548167ffffffffffffffff021916908367ffffffffffffffff16021790555050565b60008060018081111561029957610298610e57565b5b8560018111156102ac576102ab610e57565b5b036102c5576102bc8685856107c2565b9150915061030d565b600060018111156102d9576102d8610e57565b5b8560018111156102ec576102eb610e57565b5b03610305576102fc86858561091b565b9150915061030d565b600080915091505b94509492505050565b61031e61073b565b80600260006101000a81548167ffffffffffffffff021916908367ffffffffffffffff16021790555050565b60016020528060005260406000206000915090508060000160009054906101000a900460ff16908060000160019054906101000a900460ff16905082565b61039061073b565b61039a6000610b09565b565b600080823b9050600081036103e6576040517f08c379a00000000000000000000000000000000000000000000000000000000081526004016103dd90611026565b60405180910390fd5b60008167ffffffffffffffff81111561040257610401611046565b5b6040519080825280601f01601f1916602001820160405280156104345781602001600182028036833780820191505090505b50905081600060208301863c600061046c827f414bf389314e949f7d65d58dd6b67d69018994750e6fdc230761f1010efe4993610bcd565b9050600061049a837f38ed1739ee07daf49933f1800d1a9bc8d39a6876ea11e643f9c4c39c66df0ee8610bcd565b905081156104af5760009450505050506104fd565b80156104c25760019450505050506104fd565b6040517f08c379a00000000000000000000000000000000000000000000000000000000081526004016104f4906110e7565b60405180910390fd5b919050565b6000600260089054906101000a900467ffffffffffffffff1667ffffffffffffffff16905090565b60008060009054906101000a900473ffffffffffffffffffffffffffffffffffffffff16905090565b6000600260009054906101000a900467ffffffffffffffff1667ffffffffffffffff16905090565b61058361073b565b600061058e8261039c565b905060405180604001604052806001151581526020018260018111156105b7576105b6610e57565b5b815250600160008473ffffffffffffffffffffffffffffffffffffffff1673ffffffffffffffffffffffffffffffffffffffff16815260200190815260200160002060008201518160000160006101000a81548160ff02191690831515021790555060208201518160000160016101000a81548160ff0219169083600181111561064457610643610e57565b5b02179055509050507fafa89fc7587af96e98b0e772270511472f5fb27ef564e0ac81acbbbfc29f0dd78260405161067b9190610f55565b60405180910390a15050565b61068f61073b565b600073ffffffffffffffffffffffffffffffffffffffff168173ffffffffffffffffffffffffffffffffffffffff16036107015760006040517f1e4fbdf70000000000000000000000000000000000000000000000000000000081526004016106f89190610f55565b60405180910390fd5b61070a81610b09565b50565b6000610717610553565b826107229190611136565b61072a610502565b6107349190611178565b9050919050565b610743610c64565b73ffffffffffffffffffffffffffffffffffffffff1661076161052a565b73ffffffffffffffffffffffffffffffffffffffff16146107c057610784610c64565b6040517f118cdaa70000000000000000000000000000000000000000000000000000000081526004016107b79190610f55565b60405180910390fd5b565b600080600085905060008173ffffffffffffffffffffffffffffffffffffffff1663c45a01556040518163ffffffff1660e01b8152600401602060405180830381865afa158015610817573d6000803e3d6000fd5b505050506040513d601f19601f8201168201806040525081019061083b91906111c1565b9050600081905060008173ffffffffffffffffffffffffffffffffffffffff1663e6a4390589896040518363ffffffff1660e01b815260040161087f9291906111ee565b602060405180830381865afa15801561089c573d6000803e3d6000fd5b505050506040513d601f19601f820116820180604052508101906108c091906111c1565b9050600073ffffffffffffffffffffffffffffffffffffffff168173ffffffffffffffffffffffffffffffffffffffff161461090757600160009550955050505050610913565b60008095509550505050505b935093915050565b600080600085905060008173ffffffffffffffffffffffffffffffffffffffff1663c45a01556040518163ffffffff1660e01b8152600401602060405180830381865afa158015610970573d6000803e3d6000fd5b505050506040513d601f19601f8201168201806040525081019061099491906111c1565b90506000819050600060405180606001604052806101f462ffffff1662ffffff168152602001610bb862ffffff1662ffffff16815260200161271062ffffff1662ffffff16815250905060005b6003811015610af45760008373ffffffffffffffffffffffffffffffffffffffff16631698ee828b8b868660038110610a1d57610a1c611217565b5b60200201516040518463ffffffff1660e01b8152600401610a4093929190611246565b602060405180830381865afa158015610a5d573d6000803e3d6000fd5b505050506040513d601f19601f82011682018060405250810190610a8191906111c1565b9050600073ffffffffffffffffffffffffffffffffffffffff168173ffffffffffffffffffffffffffffffffffffffff1614610ae0576001838360038110610acc57610acb611217565b5b602002015197509750505050505050610b01565b508080610aec9061127d565b9150506109e1565b5060008095509550505050505b935093915050565b60008060009054906101000a900473ffffffffffffffffffffffffffffffffffffffff169050816000806101000a81548173ffffffffffffffffffffffffffffffffffffffff021916908373ffffffffffffffffffffffffffffffffffffffff1602179055508173ffffffffffffffffffffffffffffffffffffffff168173ffffffffffffffffffffffffffffffffffffffff167f8be0079c531659141344cd1fd0a4f28419497f9722a3daafe3b4186f6b6457e060405160405180910390a35050565b600080600090505b60048451610be391906112c5565b8111610c58576000816020860101519050837bffffffffffffffffffffffffffffffffffffffffffffffffffffffff1916817bffffffffffffffffffffffffffffffffffffffffffffffffffffffff191603610c4457600192505050610c5e565b508080610c509061127d565b915050610bd5565b50600090505b92915050565b600033905090565b600080fd5b600067ffffffffffffffff82169050919050565b610c8e81610c71565b8114610c9957600080fd5b50565b600081359050610cab81610c85565b92915050565b600060208284031215610cc757610cc6610c6c565b5b6000610cd584828501610c9c565b91505092915050565b600073ffffffffffffffffffffffffffffffffffffffff82169050919050565b6000610d0982610cde565b9050919050565b610d1981610cfe565b8114610d2457600080fd5b50565b600081359050610d3681610d10565b92915050565b60028110610d4957600080fd5b50565b600081359050610d5b81610d3c565b92915050565b60008060008060808587031215610d7b57610d7a610c6c565b5b6000610d8987828801610d27565b9450506020610d9a87828801610d4c565b9350506040610dab87828801610d27565b9250506060610dbc87828801610d27565b91505092959194509250565b60008115159050919050565b610ddd81610dc8565b82525050565b600062ffffff82169050919050565b610dfb81610de3565b82525050565b6000604082019050610e166000830185610dd4565b610e236020830184610df2565b9392505050565b600060208284031215610e4057610e3f610c6c565b5b6000610e4e84828501610d27565b91505092915050565b7f4e487b7100000000000000000000000000000000000000000000000000000000600052602160045260246000fd5b60028110610e9757610e96610e57565b5b50565b6000819050610ea882610e86565b919050565b6000610eb882610e9a565b9050919050565b610ec881610ead565b82525050565b6000604082019050610ee36000830185610dd4565b610ef06020830184610ebf565b9392505050565b6000602082019050610f0c6000830184610ebf565b92915050565b6000819050919050565b610f2581610f12565b82525050565b6000602082019050610f406000830184610f1c565b92915050565b610f4f81610cfe565b82525050565b6000602082019050610f6a6000830184610f46565b92915050565b610f7981610f12565b8114610f8457600080fd5b50565b600081359050610f9681610f70565b92915050565b600060208284031215610fb257610fb1610c6c565b5b6000610fc084828501610f87565b91505092915050565b600082825260208201905092915050565b7f41646472657373206973206e6f74206120636f6e747261637421000000000000600082015250565b6000611010601a83610fc9565b915061101b82610fda565b602082019050919050565b6000602082019050818103600083015261103f81611003565b9050919050565b7f4e487b7100000000000000000000000000000000000000000000000000000000600052604160045260246000fd5b7f546865206465782061646472657373206973206e6f7420556e6973776170563360008201527f20666f726b206e6f7220556e6973776170563220666f726b0000000000000000602082015250565b60006110d1603883610fc9565b91506110dc82611075565b604082019050919050565b60006020820190508181036000830152611100816110c4565b9050919050565b7f4e487b7100000000000000000000000000000000000000000000000000000000600052601160045260246000fd5b600061114182610f12565b915061114c83610f12565b925082820261115a81610f12565b9150828204841483151761117157611170611107565b5b5092915050565b600061118382610f12565b915061118e83610f12565b92508282019050808211156111a6576111a5611107565b5b92915050565b6000815190506111bb81610d10565b92915050565b6000602082840312156111d7576111d6610c6c565b5b60006111e5848285016111ac565b91505092915050565b60006040820190506112036000830185610f46565b6112106020830184610f46565b9392505050565b7f4e487b7100000000000000000000000000000000000000000000000000000000600052603260045260246000fd5b600060608201905061125b6000830186610f46565b6112686020830185610f46565b6112756040830184610df2565b949350505050565b600061128882610f12565b91507fffffffffffffffffffffffffffffffffffffffffffffffffffffffffffffffff82036112ba576112b9611107565b5b600182019050919050565b60006112d082610f12565b91506112db83610f12565b92508282039050818111156112f3576112f2611107565b5b9291505056fea26469706673582212203bcf5782b7dc5020238b1a6c951800bd348495021fe12977e74671d737476c1c64736f6c63430008140033",
          "opcodes": "PUSH1 0x80 PUSH1 0x40 MSTORE CALLVALUE DUP1 ISZERO PUSH3 0x11 JUMPI PUSH1 0x0 DUP1 REVERT JUMPDEST POP PUSH1 0x40 MLOAD PUSH3 0x1658 CODESIZE SUB DUP1 PUSH3 0x1658 DUP4 CODECOPY DUP2 DUP2 ADD PUSH1 0x40 MSTORE DUP2 ADD SWAP1 PUSH3 0x37 SWAP2 SWAP1 PUSH3 0x28F JUMP JUMPDEST DUP1 DUP1 PUSH1 0x0 PUSH20 0xFFFFFFFFFFFFFFFFFFFFFFFFFFFFFFFFFFFFFFFF AND DUP2 PUSH20 0xFFFFFFFFFFFFFFFFFFFFFFFFFFFFFFFFFFFFFFFF AND SUB PUSH3 0xAE JUMPI PUSH1 0x0 PUSH1 0x40 MLOAD PUSH32 0x1E4FBDF700000000000000000000000000000000000000000000000000000000 DUP2 MSTORE PUSH1 0x4 ADD PUSH3 0xA5 SWAP2 SWAP1 PUSH3 0x2FC JUMP JUMPDEST PUSH1 0x40 MLOAD DUP1 SWAP2 SUB SWAP1 REVERT JUMPDEST PUSH3 0xBF DUP2 PUSH3 0x11C PUSH1 0x20 SHL PUSH1 0x20 SHR JUMP JUMPDEST POP POP DUP3 PUSH1 0x2 PUSH1 0x0 PUSH2 0x100 EXP DUP2 SLOAD DUP2 PUSH8 0xFFFFFFFFFFFFFFFF MUL NOT AND SWAP1 DUP4 PUSH8 0xFFFFFFFFFFFFFFFF AND MUL OR SWAP1 SSTORE POP DUP2 PUSH1 0x2 PUSH1 0x8 PUSH2 0x100 EXP DUP2 SLOAD DUP2 PUSH8 0xFFFFFFFFFFFFFFFF MUL NOT AND SWAP1 DUP4 PUSH8 0xFFFFFFFFFFFFFFFF AND MUL OR SWAP1 SSTORE POP POP POP POP PUSH3 0x319 JUMP JUMPDEST PUSH1 0x0 DUP1 PUSH1 0x0 SWAP1 SLOAD SWAP1 PUSH2 0x100 EXP SWAP1 DIV PUSH20 0xFFFFFFFFFFFFFFFFFFFFFFFFFFFFFFFFFFFFFFFF AND SWAP1 POP DUP2 PUSH1 0x0 DUP1 PUSH2 0x100 EXP DUP2 SLOAD DUP2 PUSH20 0xFFFFFFFFFFFFFFFFFFFFFFFFFFFFFFFFFFFFFFFF MUL NOT AND SWAP1 DUP4 PUSH20 0xFFFFFFFFFFFFFFFFFFFFFFFFFFFFFFFFFFFFFFFF AND MUL OR SWAP1 SSTORE POP DUP2 PUSH20 0xFFFFFFFFFFFFFFFFFFFFFFFFFFFFFFFFFFFFFFFF AND DUP2 PUSH20 0xFFFFFFFFFFFFFFFFFFFFFFFFFFFFFFFFFFFFFFFF AND PUSH32 0x8BE0079C531659141344CD1FD0A4F28419497F9722A3DAAFE3B4186F6B6457E0 PUSH1 0x40 MLOAD PUSH1 0x40 MLOAD DUP1 SWAP2 SUB SWAP1 LOG3 POP POP JUMP JUMPDEST PUSH1 0x0 DUP1 REVERT JUMPDEST PUSH1 0x0 PUSH8 0xFFFFFFFFFFFFFFFF DUP3 AND SWAP1 POP SWAP2 SWAP1 POP JUMP JUMPDEST PUSH3 0x204 DUP2 PUSH3 0x1E5 JUMP JUMPDEST DUP2 EQ PUSH3 0x210 JUMPI PUSH1 0x0 DUP1 REVERT JUMPDEST POP JUMP JUMPDEST PUSH1 0x0 DUP2 MLOAD SWAP1 POP PUSH3 0x224 DUP2 PUSH3 0x1F9 JUMP JUMPDEST SWAP3 SWAP2 POP POP JUMP JUMPDEST PUSH1 0x0 PUSH20 0xFFFFFFFFFFFFFFFFFFFFFFFFFFFFFFFFFFFFFFFF DUP3 AND SWAP1 POP SWAP2 SWAP1 POP JUMP JUMPDEST PUSH1 0x0 PUSH3 0x257 DUP3 PUSH3 0x22A JUMP JUMPDEST SWAP1 POP SWAP2 SWAP1 POP JUMP JUMPDEST PUSH3 0x269 DUP2 PUSH3 0x24A JUMP JUMPDEST DUP2 EQ PUSH3 0x275 JUMPI PUSH1 0x0 DUP1 REVERT JUMPDEST POP JUMP JUMPDEST PUSH1 0x0 DUP2 MLOAD SWAP1 POP PUSH3 0x289 DUP2 PUSH3 0x25E JUMP JUMPDEST SWAP3 SWAP2 POP POP JUMP JUMPDEST PUSH1 0x0 DUP1 PUSH1 0x0 PUSH1 0x60 DUP5 DUP7 SUB SLT ISZERO PUSH3 0x2AB JUMPI PUSH3 0x2AA PUSH3 0x1E0 JUMP JUMPDEST JUMPDEST PUSH1 0x0 PUSH3 0x2BB DUP7 DUP3 DUP8 ADD PUSH3 0x213 JUMP JUMPDEST SWAP4 POP POP PUSH1 0x20 PUSH3 0x2CE DUP7 DUP3 DUP8 ADD PUSH3 0x213 JUMP JUMPDEST SWAP3 POP POP PUSH1 0x40 PUSH3 0x2E1 DUP7 DUP3 DUP8 ADD PUSH3 0x278 JUMP JUMPDEST SWAP2 POP POP SWAP3 POP SWAP3 POP SWAP3 JUMP JUMPDEST PUSH3 0x2F6 DUP2 PUSH3 0x24A JUMP JUMPDEST DUP3 MSTORE POP POP JUMP JUMPDEST PUSH1 0x0 PUSH1 0x20 DUP3 ADD SWAP1 POP PUSH3 0x313 PUSH1 0x0 DUP4 ADD DUP5 PUSH3 0x2EB JUMP JUMPDEST SWAP3 SWAP2 POP POP JUMP JUMPDEST PUSH2 0x132F DUP1 PUSH3 0x329 PUSH1 0x0 CODECOPY PUSH1 0x0 RETURN INVALID PUSH1 0x80 PUSH1 0x40 MSTORE CALLVALUE DUP1 ISZERO PUSH2 0x10 JUMPI PUSH1 0x0 DUP1 REVERT JUMPDEST POP PUSH1 0x4 CALLDATASIZE LT PUSH2 0xB4 JUMPI PUSH1 0x0 CALLDATALOAD PUSH1 0xE0 SHR DUP1 PUSH4 0x897293A4 GT PUSH2 0x71 JUMPI DUP1 PUSH4 0x897293A4 EQ PUSH2 0x18D JUMPI DUP1 PUSH4 0x8DA5CB5B EQ PUSH2 0x1AB JUMPI DUP1 PUSH4 0xCC506F35 EQ PUSH2 0x1C9 JUMPI DUP1 PUSH4 0xEFB7C45F EQ PUSH2 0x1E7 JUMPI DUP1 PUSH4 0xF2FDE38B EQ PUSH2 0x203 JUMPI DUP1 PUSH4 0xF3AAAFBF EQ PUSH2 0x21F JUMPI PUSH2 0xB4 JUMP JUMPDEST DUP1 PUSH4 0xEC1F8BF EQ PUSH2 0xB9 JUMPI DUP1 PUSH4 0x1C135C4E EQ PUSH2 0xD5 JUMPI DUP1 PUSH4 0x34AF43BE EQ PUSH2 0x106 JUMPI DUP1 PUSH4 0x4525EEB2 EQ PUSH2 0x122 JUMPI DUP1 PUSH4 0x715018A6 EQ PUSH2 0x153 JUMPI DUP1 PUSH4 0x7C310325 EQ PUSH2 0x15D JUMPI JUMPDEST PUSH1 0x0 DUP1 REVERT JUMPDEST PUSH2 0xD3 PUSH1 0x4 DUP1 CALLDATASIZE SUB DUP2 ADD SWAP1 PUSH2 0xCE SWAP2 SWAP1 PUSH2 0xCB1 JUMP JUMPDEST PUSH2 0x24F JUMP JUMPDEST STOP JUMPDEST PUSH2 0xEF PUSH1 0x4 DUP1 CALLDATASIZE SUB DUP2 ADD SWAP1 PUSH2 0xEA SWAP2 SWAP1 PUSH2 0xD61 JUMP JUMPDEST PUSH2 0x283 JUMP JUMPDEST PUSH1 0x40 MLOAD PUSH2 0xFD SWAP3 SWAP2 SWAP1 PUSH2 0xE01 JUMP JUMPDEST PUSH1 0x40 MLOAD DUP1 SWAP2 SUB SWAP1 RETURN JUMPDEST PUSH2 0x120 PUSH1 0x4 DUP1 CALLDATASIZE SUB DUP2 ADD SWAP1 PUSH2 0x11B SWAP2 SWAP1 PUSH2 0xCB1 JUMP JUMPDEST PUSH2 0x316 JUMP JUMPDEST STOP JUMPDEST PUSH2 0x13C PUSH1 0x4 DUP1 CALLDATASIZE SUB DUP2 ADD SWAP1 PUSH2 0x137 SWAP2 SWAP1 PUSH2 0xE2A JUMP JUMPDEST PUSH2 0x34A JUMP JUMPDEST PUSH1 0x40 MLOAD PUSH2 0x14A SWAP3 SWAP2 SWAP1 PUSH2 0xECE JUMP JUMPDEST PUSH1 0x40 MLOAD DUP1 SWAP2 SUB SWAP1 RETURN JUMPDEST PUSH2 0x15B PUSH2 0x388 JUMP JUMPDEST STOP JUMPDEST PUSH2 0x177 PUSH1 0x4 DUP1 CALLDATASIZE SUB DUP2 ADD SWAP1 PUSH2 0x172 SWAP2 SWAP1 PUSH2 0xE2A JUMP JUMPDEST PUSH2 0x39C JUMP JUMPDEST PUSH1 0x40 MLOAD PUSH2 0x184 SWAP2 SWAP1 PUSH2 0xEF7 JUMP JUMPDEST PUSH1 0x40 MLOAD DUP1 SWAP2 SUB SWAP1 RETURN JUMPDEST PUSH2 0x195 PUSH2 0x502 JUMP JUMPDEST PUSH1 0x40 MLOAD PUSH2 0x1A2 SWAP2 SWAP1 PUSH2 0xF2B JUMP JUMPDEST PUSH1 0x40 MLOAD DUP1 SWAP2 SUB SWAP1 RETURN JUMPDEST PUSH2 0x1B3 PUSH2 0x52A JUMP JUMPDEST PUSH1 0x40 MLOAD PUSH2 0x1C0 SWAP2 SWAP1 PUSH2 0xF55 JUMP JUMPDEST PUSH1 0x40 MLOAD DUP1 SWAP2 SUB SWAP1 RETURN JUMPDEST PUSH2 0x1D1 PUSH2 0x553 JUMP JUMPDEST PUSH1 0x40 MLOAD PUSH2 0x1DE SWAP2 SWAP1 PUSH2 0xF2B JUMP JUMPDEST PUSH1 0x40 MLOAD DUP1 SWAP2 SUB SWAP1 RETURN JUMPDEST PUSH2 0x201 PUSH1 0x4 DUP1 CALLDATASIZE SUB DUP2 ADD SWAP1 PUSH2 0x1FC SWAP2 SWAP1 PUSH2 0xE2A JUMP JUMPDEST PUSH2 0x57B JUMP JUMPDEST STOP JUMPDEST PUSH2 0x21D PUSH1 0x4 DUP1 CALLDATASIZE SUB DUP2 ADD SWAP1 PUSH2 0x218 SWAP2 SWAP1 PUSH2 0xE2A JUMP JUMPDEST PUSH2 0x687 JUMP JUMPDEST STOP JUMPDEST PUSH2 0x239 PUSH1 0x4 DUP1 CALLDATASIZE SUB DUP2 ADD SWAP1 PUSH2 0x234 SWAP2 SWAP1 PUSH2 0xF9C JUMP JUMPDEST PUSH2 0x70D JUMP JUMPDEST PUSH1 0x40 MLOAD PUSH2 0x246 SWAP2 SWAP1 PUSH2 0xF2B JUMP JUMPDEST PUSH1 0x40 MLOAD DUP1 SWAP2 SUB SWAP1 RETURN JUMPDEST PUSH2 0x257 PUSH2 0x73B JUMP JUMPDEST DUP1 PUSH1 0x2 PUSH1 0x8 PUSH2 0x100 EXP DUP2 SLOAD DUP2 PUSH8 0xFFFFFFFFFFFFFFFF MUL NOT AND SWAP1 DUP4 PUSH8 0xFFFFFFFFFFFFFFFF AND MUL OR SWAP1 SSTORE POP POP JUMP JUMPDEST PUSH1 0x0 DUP1 PUSH1 0x1 DUP1 DUP2 GT ISZERO PUSH2 0x299 JUMPI PUSH2 0x298 PUSH2 0xE57 JUMP JUMPDEST JUMPDEST DUP6 PUSH1 0x1 DUP2 GT ISZERO PUSH2 0x2AC JUMPI PUSH2 0x2AB PUSH2 0xE57 JUMP JUMPDEST JUMPDEST SUB PUSH2 0x2C5 JUMPI PUSH2 0x2BC DUP7 DUP6 DUP6 PUSH2 0x7C2 JUMP JUMPDEST SWAP2 POP SWAP2 POP PUSH2 0x30D JUMP JUMPDEST PUSH1 0x0 PUSH1 0x1 DUP2 GT ISZERO PUSH2 0x2D9 JUMPI PUSH2 0x2D8 PUSH2 0xE57 JUMP JUMPDEST JUMPDEST DUP6 PUSH1 0x1 DUP2 GT ISZERO PUSH2 0x2EC JUMPI PUSH2 0x2EB PUSH2 0xE57 JUMP JUMPDEST JUMPDEST SUB PUSH2 0x305 JUMPI PUSH2 0x2FC DUP7 DUP6 DUP6 PUSH2 0x91B JUMP JUMPDEST SWAP2 POP SWAP2 POP PUSH2 0x30D JUMP JUMPDEST PUSH1 0x0 DUP1 SWAP2 POP SWAP2 POP JUMPDEST SWAP5 POP SWAP5 SWAP3 POP POP POP JUMP JUMPDEST PUSH2 0x31E PUSH2 0x73B JUMP JUMPDEST DUP1 PUSH1 0x2 PUSH1 0x0 PUSH2 0x100 EXP DUP2 SLOAD DUP2 PUSH8 0xFFFFFFFFFFFFFFFF MUL NOT AND SWAP1 DUP4 PUSH8 0xFFFFFFFFFFFFFFFF AND MUL OR SWAP1 SSTORE POP POP JUMP JUMPDEST PUSH1 0x1 PUSH1 0x20 MSTORE DUP1 PUSH1 0x0 MSTORE PUSH1 0x40 PUSH1 0x0 KECCAK256 PUSH1 0x0 SWAP2 POP SWAP1 POP DUP1 PUSH1 0x0 ADD PUSH1 0x0 SWAP1 SLOAD SWAP1 PUSH2 0x100 EXP SWAP1 DIV PUSH1 0xFF AND SWAP1 DUP1 PUSH1 0x0 ADD PUSH1 0x1 SWAP1 SLOAD SWAP1 PUSH2 0x100 EXP SWAP1 DIV PUSH1 0xFF AND SWAP1 POP DUP3 JUMP JUMPDEST PUSH2 0x390 PUSH2 0x73B JUMP JUMPDEST PUSH2 0x39A PUSH1 0x0 PUSH2 0xB09 JUMP JUMPDEST JUMP JUMPDEST PUSH1 0x0 DUP1 DUP3 EXTCODESIZE SWAP1 POP PUSH1 0x0 DUP2 SUB PUSH2 0x3E6 JUMPI PUSH1 0x40 MLOAD PUSH32 0x8C379A000000000000000000000000000000000000000000000000000000000 DUP2 MSTORE PUSH1 0x4 ADD PUSH2 0x3DD SWAP1 PUSH2 0x1026 JUMP JUMPDEST PUSH1 0x40 MLOAD DUP1 SWAP2 SUB SWAP1 REVERT JUMPDEST PUSH1 0x0 DUP2 PUSH8 0xFFFFFFFFFFFFFFFF DUP2 GT ISZERO PUSH2 0x402 JUMPI PUSH2 0x401 PUSH2 0x1046 JUMP JUMPDEST JUMPDEST PUSH1 0x40 MLOAD SWAP1 DUP1 DUP3 MSTORE DUP1 PUSH1 0x1F ADD PUSH1 0x1F NOT AND PUSH1 0x20 ADD DUP3 ADD PUSH1 0x40 MSTORE DUP1 ISZERO PUSH2 0x434 JUMPI DUP2 PUSH1 0x20 ADD PUSH1 0x1 DUP3 MUL DUP1 CALLDATASIZE DUP4 CALLDATACOPY DUP1 DUP3 ADD SWAP2 POP POP SWAP1 POP JUMPDEST POP SWAP1 POP DUP2 PUSH1 0x0 PUSH1 0x20 DUP4 ADD DUP7 EXTCODECOPY PUSH1 0x0 PUSH2 0x46C DUP3 PUSH32 0x414BF389314E949F7D65D58DD6B67D69018994750E6FDC230761F1010EFE4993 PUSH2 0xBCD JUMP JUMPDEST SWAP1 POP PUSH1 0x0 PUSH2 0x49A DUP4 PUSH32 0x38ED1739EE07DAF49933F1800D1A9BC8D39A6876EA11E643F9C4C39C66DF0EE8 PUSH2 0xBCD JUMP JUMPDEST SWAP1 POP DUP2 ISZERO PUSH2 0x4AF JUMPI PUSH1 0x0 SWAP5 POP POP POP POP POP PUSH2 0x4FD JUMP JUMPDEST DUP1 ISZERO PUSH2 0x4C2 JUMPI PUSH1 0x1 SWAP5 POP POP POP POP POP PUSH2 0x4FD JUMP JUMPDEST PUSH1 0x40 MLOAD PUSH32 0x8C379A000000000000000000000000000000000000000000000000000000000 DUP2 MSTORE PUSH1 0x4 ADD PUSH2 0x4F4 SWAP1 PUSH2 0x10E7 JUMP JUMPDEST PUSH1 0x40 MLOAD DUP1 SWAP2 SUB SWAP1 REVERT JUMPDEST SWAP2 SWAP1 POP JUMP JUMPDEST PUSH1 0x0 PUSH1 0x2 PUSH1 0x8 SWAP1 SLOAD SWAP1 PUSH2 0x100 EXP SWAP1 DIV PUSH8 0xFFFFFFFFFFFFFFFF AND PUSH8 0xFFFFFFFFFFFFFFFF AND SWAP1 POP SWAP1 JUMP JUMPDEST PUSH1 0x0 DUP1 PUSH1 0x0 SWAP1 SLOAD SWAP1 PUSH2 0x100 EXP SWAP1 DIV PUSH20 0xFFFFFFFFFFFFFFFFFFFFFFFFFFFFFFFFFFFFFFFF AND SWAP1 POP SWAP1 JUMP JUMPDEST PUSH1 0x0 PUSH1 0x2 PUSH1 0x0 SWAP1 SLOAD SWAP1 PUSH2 0x100 EXP SWAP1 DIV PUSH8 0xFFFFFFFFFFFFFFFF AND PUSH8 0xFFFFFFFFFFFFFFFF AND SWAP1 POP SWAP1 JUMP JUMPDEST PUSH2 0x583 PUSH2 0x73B JUMP JUMPDEST PUSH1 0x0 PUSH2 0x58E DUP3 PUSH2 0x39C JUMP JUMPDEST SWAP1 POP PUSH1 0x40 MLOAD DUP1 PUSH1 0x40 ADD PUSH1 0x40 MSTORE DUP1 PUSH1 0x1 ISZERO ISZERO DUP2 MSTORE PUSH1 0x20 ADD DUP3 PUSH1 0x1 DUP2 GT ISZERO PUSH2 0x5B7 JUMPI PUSH2 0x5B6 PUSH2 0xE57 JUMP JUMPDEST JUMPDEST DUP2 MSTORE POP PUSH1 0x1 PUSH1 0x0 DUP5 PUSH20 0xFFFFFFFFFFFFFFFFFFFFFFFFFFFFFFFFFFFFFFFF AND PUSH20 0xFFFFFFFFFFFFFFFFFFFFFFFFFFFFFFFFFFFFFFFF AND DUP2 MSTORE PUSH1 0x20 ADD SWAP1 DUP2 MSTORE PUSH1 0x20 ADD PUSH1 0x0 KECCAK256 PUSH1 0x0 DUP3 ADD MLOAD DUP2 PUSH1 0x0 ADD PUSH1 0x0 PUSH2 0x100 EXP DUP2 SLOAD DUP2 PUSH1 0xFF MUL NOT AND SWAP1 DUP4 ISZERO ISZERO MUL OR SWAP1 SSTORE POP PUSH1 0x20 DUP3 ADD MLOAD DUP2 PUSH1 0x0 ADD PUSH1 0x1 PUSH2 0x100 EXP DUP2 SLOAD DUP2 PUSH1 0xFF MUL NOT AND SWAP1 DUP4 PUSH1 0x1 DUP2 GT ISZERO PUSH2 0x644 JUMPI PUSH2 0x643 PUSH2 0xE57 JUMP JUMPDEST JUMPDEST MUL OR SWAP1 SSTORE POP SWAP1 POP POP PUSH32 0xAFA89FC7587AF96E98B0E772270511472F5FB27EF564E0AC81ACBBBFC29F0DD7 DUP3 PUSH1 0x40 MLOAD PUSH2 0x67B SWAP2 SWAP1 PUSH2 0xF55 JUMP JUMPDEST PUSH1 0x40 MLOAD DUP1 SWAP2 SUB SWAP1 LOG1 POP POP JUMP JUMPDEST PUSH2 0x68F PUSH2 0x73B JUMP JUMPDEST PUSH1 0x0 PUSH20 0xFFFFFFFFFFFFFFFFFFFFFFFFFFFFFFFFFFFFFFFF AND DUP2 PUSH20 0xFFFFFFFFFFFFFFFFFFFFFFFFFFFFFFFFFFFFFFFF AND SUB PUSH2 0x701 JUMPI PUSH1 0x0 PUSH1 0x40 MLOAD PUSH32 0x1E4FBDF700000000000000000000000000000000000000000000000000000000 DUP2 MSTORE PUSH1 0x4 ADD PUSH2 0x6F8 SWAP2 SWAP1 PUSH2 0xF55 JUMP JUMPDEST PUSH1 0x40 MLOAD DUP1 SWAP2 SUB SWAP1 REVERT JUMPDEST PUSH2 0x70A DUP2 PUSH2 0xB09 JUMP JUMPDEST POP JUMP JUMPDEST PUSH1 0x0 PUSH2 0x717 PUSH2 0x553 JUMP JUMPDEST DUP3 PUSH2 0x722 SWAP2 SWAP1 PUSH2 0x1136 JUMP JUMPDEST PUSH2 0x72A PUSH2 0x502 JUMP JUMPDEST PUSH2 0x734 SWAP2 SWAP1 PUSH2 0x1178 JUMP JUMPDEST SWAP1 POP SWAP2 SWAP1 POP JUMP JUMPDEST PUSH2 0x743 PUSH2 0xC64 JUMP JUMPDEST PUSH20 0xFFFFFFFFFFFFFFFFFFFFFFFFFFFFFFFFFFFFFFFF AND PUSH2 0x761 PUSH2 0x52A JUMP JUMPDEST PUSH20 0xFFFFFFFFFFFFFFFFFFFFFFFFFFFFFFFFFFFFFFFF AND EQ PUSH2 0x7C0 JUMPI PUSH2 0x784 PUSH2 0xC64 JUMP JUMPDEST PUSH1 0x40 MLOAD PUSH32 0x118CDAA700000000000000000000000000000000000000000000000000000000 DUP2 MSTORE PUSH1 0x4 ADD PUSH2 0x7B7 SWAP2 SWAP1 PUSH2 0xF55 JUMP JUMPDEST PUSH1 0x40 MLOAD DUP1 SWAP2 SUB SWAP1 REVERT JUMPDEST JUMP JUMPDEST PUSH1 0x0 DUP1 PUSH1 0x0 DUP6 SWAP1 POP PUSH1 0x0 DUP2 PUSH20 0xFFFFFFFFFFFFFFFFFFFFFFFFFFFFFFFFFFFFFFFF AND PUSH4 0xC45A0155 PUSH1 0x40 MLOAD DUP2 PUSH4 0xFFFFFFFF AND PUSH1 0xE0 SHL DUP2 MSTORE PUSH1 0x4 ADD PUSH1 0x20 PUSH1 0x40 MLOAD DUP1 DUP4 SUB DUP2 DUP7 GAS STATICCALL ISZERO DUP1 ISZERO PUSH2 0x817 JUMPI RETURNDATASIZE PUSH1 0x0 DUP1 RETURNDATACOPY RETURNDATASIZE PUSH1 0x0 REVERT JUMPDEST POP POP POP POP PUSH1 0x40 MLOAD RETURNDATASIZE PUSH1 0x1F NOT PUSH1 0x1F DUP3 ADD AND DUP3 ADD DUP1 PUSH1 0x40 MSTORE POP DUP2 ADD SWAP1 PUSH2 0x83B SWAP2 SWAP1 PUSH2 0x11C1 JUMP JUMPDEST SWAP1 POP PUSH1 0x0 DUP2 SWAP1 POP PUSH1 0x0 DUP2 PUSH20 0xFFFFFFFFFFFFFFFFFFFFFFFFFFFFFFFFFFFFFFFF AND PUSH4 0xE6A43905 DUP10 DUP10 PUSH1 0x40 MLOAD DUP4 PUSH4 0xFFFFFFFF AND PUSH1 0xE0 SHL DUP2 MSTORE PUSH1 0x4 ADD PUSH2 0x87F SWAP3 SWAP2 SWAP1 PUSH2 0x11EE JUMP JUMPDEST PUSH1 0x20 PUSH1 0x40 MLOAD DUP1 DUP4 SUB DUP2 DUP7 GAS STATICCALL ISZERO DUP1 ISZERO PUSH2 0x89C JUMPI RETURNDATASIZE PUSH1 0x0 DUP1 RETURNDATACOPY RETURNDATASIZE PUSH1 0x0 REVERT JUMPDEST POP POP POP POP PUSH1 0x40 MLOAD RETURNDATASIZE PUSH1 0x1F NOT PUSH1 0x1F DUP3 ADD AND DUP3 ADD DUP1 PUSH1 0x40 MSTORE POP DUP2 ADD SWAP1 PUSH2 0x8C0 SWAP2 SWAP1 PUSH2 0x11C1 JUMP JUMPDEST SWAP1 POP PUSH1 0x0 PUSH20 0xFFFFFFFFFFFFFFFFFFFFFFFFFFFFFFFFFFFFFFFF AND DUP2 PUSH20 0xFFFFFFFFFFFFFFFFFFFFFFFFFFFFFFFFFFFFFFFF AND EQ PUSH2 0x907 JUMPI PUSH1 0x1 PUSH1 0x0 SWAP6 POP SWAP6 POP POP POP POP POP PUSH2 0x913 JUMP JUMPDEST PUSH1 0x0 DUP1 SWAP6 POP SWAP6 POP POP POP POP POP JUMPDEST SWAP4 POP SWAP4 SWAP2 POP POP JUMP JUMPDEST PUSH1 0x0 DUP1 PUSH1 0x0 DUP6 SWAP1 POP PUSH1 0x0 DUP2 PUSH20 0xFFFFFFFFFFFFFFFFFFFFFFFFFFFFFFFFFFFFFFFF AND PUSH4 0xC45A0155 PUSH1 0x40 MLOAD DUP2 PUSH4 0xFFFFFFFF AND PUSH1 0xE0 SHL DUP2 MSTORE PUSH1 0x4 ADD PUSH1 0x20 PUSH1 0x40 MLOAD DUP1 DUP4 SUB DUP2 DUP7 GAS STATICCALL ISZERO DUP1 ISZERO PUSH2 0x970 JUMPI RETURNDATASIZE PUSH1 0x0 DUP1 RETURNDATACOPY RETURNDATASIZE PUSH1 0x0 REVERT JUMPDEST POP POP POP POP PUSH1 0x40 MLOAD RETURNDATASIZE PUSH1 0x1F NOT PUSH1 0x1F DUP3 ADD AND DUP3 ADD DUP1 PUSH1 0x40 MSTORE POP DUP2 ADD SWAP1 PUSH2 0x994 SWAP2 SWAP1 PUSH2 0x11C1 JUMP JUMPDEST SWAP1 POP PUSH1 0x0 DUP2 SWAP1 POP PUSH1 0x0 PUSH1 0x40 MLOAD DUP1 PUSH1 0x60 ADD PUSH1 0x40 MSTORE DUP1 PUSH2 0x1F4 PUSH3 0xFFFFFF AND PUSH3 0xFFFFFF AND DUP2 MSTORE PUSH1 0x20 ADD PUSH2 0xBB8 PUSH3 0xFFFFFF AND PUSH3 0xFFFFFF AND DUP2 MSTORE PUSH1 0x20 ADD PUSH2 0x2710 PUSH3 0xFFFFFF AND PUSH3 0xFFFFFF AND DUP2 MSTORE POP SWAP1 POP PUSH1 0x0 JUMPDEST PUSH1 0x3 DUP2 LT ISZERO PUSH2 0xAF4 JUMPI PUSH1 0x0 DUP4 PUSH20 0xFFFFFFFFFFFFFFFFFFFFFFFFFFFFFFFFFFFFFFFF AND PUSH4 0x1698EE82 DUP12 DUP12 DUP7 DUP7 PUSH1 0x3 DUP2 LT PUSH2 0xA1D JUMPI PUSH2 0xA1C PUSH2 0x1217 JUMP JUMPDEST JUMPDEST PUSH1 0x20 MUL ADD MLOAD PUSH1 0x40 MLOAD DUP5 PUSH4 0xFFFFFFFF AND PUSH1 0xE0 SHL DUP2 MSTORE PUSH1 0x4 ADD PUSH2 0xA40 SWAP4 SWAP3 SWAP2 SWAP1 PUSH2 0x1246 JUMP JUMPDEST PUSH1 0x20 PUSH1 0x40 MLOAD DUP1 DUP4 SUB DUP2 DUP7 GAS STATICCALL ISZERO DUP1 ISZERO PUSH2 0xA5D JUMPI RETURNDATASIZE PUSH1 0x0 DUP1 RETURNDATACOPY RETURNDATASIZE PUSH1 0x0 REVERT JUMPDEST POP POP POP POP PUSH1 0x40 MLOAD RETURNDATASIZE PUSH1 0x1F NOT PUSH1 0x1F DUP3 ADD AND DUP3 ADD DUP1 PUSH1 0x40 MSTORE POP DUP2 ADD SWAP1 PUSH2 0xA81 SWAP2 SWAP1 PUSH2 0x11C1 JUMP JUMPDEST SWAP1 POP PUSH1 0x0 PUSH20 0xFFFFFFFFFFFFFFFFFFFFFFFFFFFFFFFFFFFFFFFF AND DUP2 PUSH20 0xFFFFFFFFFFFFFFFFFFFFFFFFFFFFFFFFFFFFFFFF AND EQ PUSH2 0xAE0 JUMPI PUSH1 0x1 DUP4 DUP4 PUSH1 0x3 DUP2 LT PUSH2 0xACC JUMPI PUSH2 0xACB PUSH2 0x1217 JUMP JUMPDEST JUMPDEST PUSH1 0x20 MUL ADD MLOAD SWAP8 POP SWAP8 POP POP POP POP POP POP POP PUSH2 0xB01 JUMP JUMPDEST POP DUP1 DUP1 PUSH2 0xAEC SWAP1 PUSH2 0x127D JUMP JUMPDEST SWAP2 POP POP PUSH2 0x9E1 JUMP JUMPDEST POP PUSH1 0x0 DUP1 SWAP6 POP SWAP6 POP POP POP POP POP JUMPDEST SWAP4 POP SWAP4 SWAP2 POP POP JUMP JUMPDEST PUSH1 0x0 DUP1 PUSH1 0x0 SWAP1 SLOAD SWAP1 PUSH2 0x100 EXP SWAP1 DIV PUSH20 0xFFFFFFFFFFFFFFFFFFFFFFFFFFFFFFFFFFFFFFFF AND SWAP1 POP DUP2 PUSH1 0x0 DUP1 PUSH2 0x100 EXP DUP2 SLOAD DUP2 PUSH20 0xFFFFFFFFFFFFFFFFFFFFFFFFFFFFFFFFFFFFFFFF MUL NOT AND SWAP1 DUP4 PUSH20 0xFFFFFFFFFFFFFFFFFFFFFFFFFFFFFFFFFFFFFFFF AND MUL OR SWAP1 SSTORE POP DUP2 PUSH20 0xFFFFFFFFFFFFFFFFFFFFFFFFFFFFFFFFFFFFFFFF AND DUP2 PUSH20 0xFFFFFFFFFFFFFFFFFFFFFFFFFFFFFFFFFFFFFFFF AND PUSH32 0x8BE0079C531659141344CD1FD0A4F28419497F9722A3DAAFE3B4186F6B6457E0 PUSH1 0x40 MLOAD PUSH1 0x40 MLOAD DUP1 SWAP2 SUB SWAP1 LOG3 POP POP JUMP JUMPDEST PUSH1 0x0 DUP1 PUSH1 0x0 SWAP1 POP JUMPDEST PUSH1 0x4 DUP5 MLOAD PUSH2 0xBE3 SWAP2 SWAP1 PUSH2 0x12C5 JUMP JUMPDEST DUP2 GT PUSH2 0xC58 JUMPI PUSH1 0x0 DUP2 PUSH1 0x20 DUP7 ADD ADD MLOAD SWAP1 POP DUP4 PUSH28 0xFFFFFFFFFFFFFFFFFFFFFFFFFFFFFFFFFFFFFFFFFFFFFFFFFFFFFFFF NOT AND DUP2 PUSH28 0xFFFFFFFFFFFFFFFFFFFFFFFFFFFFFFFFFFFFFFFFFFFFFFFFFFFFFFFF NOT AND SUB PUSH2 0xC44 JUMPI PUSH1 0x1 SWAP3 POP POP POP PUSH2 0xC5E JUMP JUMPDEST POP DUP1 DUP1 PUSH2 0xC50 SWAP1 PUSH2 0x127D JUMP JUMPDEST SWAP2 POP POP PUSH2 0xBD5 JUMP JUMPDEST POP PUSH1 0x0 SWAP1 POP JUMPDEST SWAP3 SWAP2 POP POP JUMP JUMPDEST PUSH1 0x0 CALLER SWAP1 POP SWAP1 JUMP JUMPDEST PUSH1 0x0 DUP1 REVERT JUMPDEST PUSH1 0x0 PUSH8 0xFFFFFFFFFFFFFFFF DUP3 AND SWAP1 POP SWAP2 SWAP1 POP JUMP JUMPDEST PUSH2 0xC8E DUP2 PUSH2 0xC71 JUMP JUMPDEST DUP2 EQ PUSH2 0xC99 JUMPI PUSH1 0x0 DUP1 REVERT JUMPDEST POP JUMP JUMPDEST PUSH1 0x0 DUP2 CALLDATALOAD SWAP1 POP PUSH2 0xCAB DUP2 PUSH2 0xC85 JUMP JUMPDEST SWAP3 SWAP2 POP POP JUMP JUMPDEST PUSH1 0x0 PUSH1 0x20 DUP3 DUP5 SUB SLT ISZERO PUSH2 0xCC7 JUMPI PUSH2 0xCC6 PUSH2 0xC6C JUMP JUMPDEST JUMPDEST PUSH1 0x0 PUSH2 0xCD5 DUP5 DUP3 DUP6 ADD PUSH2 0xC9C JUMP JUMPDEST SWAP2 POP POP SWAP3 SWAP2 POP POP JUMP JUMPDEST PUSH1 0x0 PUSH20 0xFFFFFFFFFFFFFFFFFFFFFFFFFFFFFFFFFFFFFFFF DUP3 AND SWAP1 POP SWAP2 SWAP1 POP JUMP JUMPDEST PUSH1 0x0 PUSH2 0xD09 DUP3 PUSH2 0xCDE JUMP JUMPDEST SWAP1 POP SWAP2 SWAP1 POP JUMP JUMPDEST PUSH2 0xD19 DUP2 PUSH2 0xCFE JUMP JUMPDEST DUP2 EQ PUSH2 0xD24 JUMPI PUSH1 0x0 DUP1 REVERT JUMPDEST POP JUMP JUMPDEST PUSH1 0x0 DUP2 CALLDATALOAD SWAP1 POP PUSH2 0xD36 DUP2 PUSH2 0xD10 JUMP JUMPDEST SWAP3 SWAP2 POP POP JUMP JUMPDEST PUSH1 0x2 DUP2 LT PUSH2 0xD49 JUMPI PUSH1 0x0 DUP1 REVERT JUMPDEST POP JUMP JUMPDEST PUSH1 0x0 DUP2 CALLDATALOAD SWAP1 POP PUSH2 0xD5B DUP2 PUSH2 0xD3C JUMP JUMPDEST SWAP3 SWAP2 POP POP JUMP JUMPDEST PUSH1 0x0 DUP1 PUSH1 0x0 DUP1 PUSH1 0x80 DUP6 DUP8 SUB SLT ISZERO PUSH2 0xD7B JUMPI PUSH2 0xD7A PUSH2 0xC6C JUMP JUMPDEST JUMPDEST PUSH1 0x0 PUSH2 0xD89 DUP8 DUP3 DUP9 ADD PUSH2 0xD27 JUMP JUMPDEST SWAP5 POP POP PUSH1 0x20 PUSH2 0xD9A DUP8 DUP3 DUP9 ADD PUSH2 0xD4C JUMP JUMPDEST SWAP4 POP POP PUSH1 0x40 PUSH2 0xDAB DUP8 DUP3 DUP9 ADD PUSH2 0xD27 JUMP JUMPDEST SWAP3 POP POP PUSH1 0x60 PUSH2 0xDBC DUP8 DUP3 DUP9 ADD PUSH2 0xD27 JUMP JUMPDEST SWAP2 POP POP SWAP3 SWAP6 SWAP2 SWAP5 POP SWAP3 POP JUMP JUMPDEST PUSH1 0x0 DUP2 ISZERO ISZERO SWAP1 POP SWAP2 SWAP1 POP JUMP JUMPDEST PUSH2 0xDDD DUP2 PUSH2 0xDC8 JUMP JUMPDEST DUP3 MSTORE POP POP JUMP JUMPDEST PUSH1 0x0 PUSH3 0xFFFFFF DUP3 AND SWAP1 POP SWAP2 SWAP1 POP JUMP JUMPDEST PUSH2 0xDFB DUP2 PUSH2 0xDE3 JUMP JUMPDEST DUP3 MSTORE POP POP JUMP JUMPDEST PUSH1 0x0 PUSH1 0x40 DUP3 ADD SWAP1 POP PUSH2 0xE16 PUSH1 0x0 DUP4 ADD DUP6 PUSH2 0xDD4 JUMP JUMPDEST PUSH2 0xE23 PUSH1 0x20 DUP4 ADD DUP5 PUSH2 0xDF2 JUMP JUMPDEST SWAP4 SWAP3 POP POP POP JUMP JUMPDEST PUSH1 0x0 PUSH1 0x20 DUP3 DUP5 SUB SLT ISZERO PUSH2 0xE40 JUMPI PUSH2 0xE3F PUSH2 0xC6C JUMP JUMPDEST JUMPDEST PUSH1 0x0 PUSH2 0xE4E DUP5 DUP3 DUP6 ADD PUSH2 0xD27 JUMP JUMPDEST SWAP2 POP POP SWAP3 SWAP2 POP POP JUMP JUMPDEST PUSH32 0x4E487B7100000000000000000000000000000000000000000000000000000000 PUSH1 0x0 MSTORE PUSH1 0x21 PUSH1 0x4 MSTORE PUSH1 0x24 PUSH1 0x0 REVERT JUMPDEST PUSH1 0x2 DUP2 LT PUSH2 0xE97 JUMPI PUSH2 0xE96 PUSH2 0xE57 JUMP JUMPDEST JUMPDEST POP JUMP JUMPDEST PUSH1 0x0 DUP2 SWAP1 POP PUSH2 0xEA8 DUP3 PUSH2 0xE86 JUMP JUMPDEST SWAP2 SWAP1 POP JUMP JUMPDEST PUSH1 0x0 PUSH2 0xEB8 DUP3 PUSH2 0xE9A JUMP JUMPDEST SWAP1 POP SWAP2 SWAP1 POP JUMP JUMPDEST PUSH2 0xEC8 DUP2 PUSH2 0xEAD JUMP JUMPDEST DUP3 MSTORE POP POP JUMP JUMPDEST PUSH1 0x0 PUSH1 0x40 DUP3 ADD SWAP1 POP PUSH2 0xEE3 PUSH1 0x0 DUP4 ADD DUP6 PUSH2 0xDD4 JUMP JUMPDEST PUSH2 0xEF0 PUSH1 0x20 DUP4 ADD DUP5 PUSH2 0xEBF JUMP JUMPDEST SWAP4 SWAP3 POP POP POP JUMP JUMPDEST PUSH1 0x0 PUSH1 0x20 DUP3 ADD SWAP1 POP PUSH2 0xF0C PUSH1 0x0 DUP4 ADD DUP5 PUSH2 0xEBF JUMP JUMPDEST SWAP3 SWAP2 POP POP JUMP JUMPDEST PUSH1 0x0 DUP2 SWAP1 POP SWAP2 SWAP1 POP JUMP JUMPDEST PUSH2 0xF25 DUP2 PUSH2 0xF12 JUMP JUMPDEST DUP3 MSTORE POP POP JUMP JUMPDEST PUSH1 0x0 PUSH1 0x20 DUP3 ADD SWAP1 POP PUSH2 0xF40 PUSH1 0x0 DUP4 ADD DUP5 PUSH2 0xF1C JUMP JUMPDEST SWAP3 SWAP2 POP POP JUMP JUMPDEST PUSH2 0xF4F DUP2 PUSH2 0xCFE JUMP JUMPDEST DUP3 MSTORE POP POP JUMP JUMPDEST PUSH1 0x0 PUSH1 0x20 DUP3 ADD SWAP1 POP PUSH2 0xF6A PUSH1 0x0 DUP4 ADD DUP5 PUSH2 0xF46 JUMP JUMPDEST SWAP3 SWAP2 POP POP JUMP JUMPDEST PUSH2 0xF79 DUP2 PUSH2 0xF12 JUMP JUMPDEST DUP2 EQ PUSH2 0xF84 JUMPI PUSH1 0x0 DUP1 REVERT JUMPDEST POP JUMP JUMPDEST PUSH1 0x0 DUP2 CALLDATALOAD SWAP1 POP PUSH2 0xF96 DUP2 PUSH2 0xF70 JUMP JUMPDEST SWAP3 SWAP2 POP POP JUMP JUMPDEST PUSH1 0x0 PUSH1 0x20 DUP3 DUP5 SUB SLT ISZERO PUSH2 0xFB2 JUMPI PUSH2 0xFB1 PUSH2 0xC6C JUMP JUMPDEST JUMPDEST PUSH1 0x0 PUSH2 0xFC0 DUP5 DUP3 DUP6 ADD PUSH2 0xF87 JUMP JUMPDEST SWAP2 POP POP SWAP3 SWAP2 POP POP JUMP JUMPDEST PUSH1 0x0 DUP3 DUP3 MSTORE PUSH1 0x20 DUP3 ADD SWAP1 POP SWAP3 SWAP2 POP POP JUMP JUMPDEST PUSH32 0x41646472657373206973206E6F74206120636F6E747261637421000000000000 PUSH1 0x0 DUP3 ADD MSTORE POP JUMP JUMPDEST PUSH1 0x0 PUSH2 0x1010 PUSH1 0x1A DUP4 PUSH2 0xFC9 JUMP JUMPDEST SWAP2 POP PUSH2 0x101B DUP3 PUSH2 0xFDA JUMP JUMPDEST PUSH1 0x20 DUP3 ADD SWAP1 POP SWAP2 SWAP1 POP JUMP JUMPDEST PUSH1 0x0 PUSH1 0x20 DUP3 ADD SWAP1 POP DUP2 DUP2 SUB PUSH1 0x0 DUP4 ADD MSTORE PUSH2 0x103F DUP2 PUSH2 0x1003 JUMP JUMPDEST SWAP1 POP SWAP2 SWAP1 POP JUMP JUMPDEST PUSH32 0x4E487B7100000000000000000000000000000000000000000000000000000000 PUSH1 0x0 MSTORE PUSH1 0x41 PUSH1 0x4 MSTORE PUSH1 0x24 PUSH1 0x0 REVERT JUMPDEST PUSH32 0x546865206465782061646472657373206973206E6F7420556E69737761705633 PUSH1 0x0 DUP3 ADD MSTORE PUSH32 0x20666F726B206E6F7220556E6973776170563220666F726B0000000000000000 PUSH1 0x20 DUP3 ADD MSTORE POP JUMP JUMPDEST PUSH1 0x0 PUSH2 0x10D1 PUSH1 0x38 DUP4 PUSH2 0xFC9 JUMP JUMPDEST SWAP2 POP PUSH2 0x10DC DUP3 PUSH2 0x1075 JUMP JUMPDEST PUSH1 0x40 DUP3 ADD SWAP1 POP SWAP2 SWAP1 POP JUMP JUMPDEST PUSH1 0x0 PUSH1 0x20 DUP3 ADD SWAP1 POP DUP2 DUP2 SUB PUSH1 0x0 DUP4 ADD MSTORE PUSH2 0x1100 DUP2 PUSH2 0x10C4 JUMP JUMPDEST SWAP1 POP SWAP2 SWAP1 POP JUMP JUMPDEST PUSH32 0x4E487B7100000000000000000000000000000000000000000000000000000000 PUSH1 0x0 MSTORE PUSH1 0x11 PUSH1 0x4 MSTORE PUSH1 0x24 PUSH1 0x0 REVERT JUMPDEST PUSH1 0x0 PUSH2 0x1141 DUP3 PUSH2 0xF12 JUMP JUMPDEST SWAP2 POP PUSH2 0x114C DUP4 PUSH2 0xF12 JUMP JUMPDEST SWAP3 POP DUP3 DUP3 MUL PUSH2 0x115A DUP2 PUSH2 0xF12 JUMP JUMPDEST SWAP2 POP DUP3 DUP3 DIV DUP5 EQ DUP4 ISZERO OR PUSH2 0x1171 JUMPI PUSH2 0x1170 PUSH2 0x1107 JUMP JUMPDEST JUMPDEST POP SWAP3 SWAP2 POP POP JUMP JUMPDEST PUSH1 0x0 PUSH2 0x1183 DUP3 PUSH2 0xF12 JUMP JUMPDEST SWAP2 POP PUSH2 0x118E DUP4 PUSH2 0xF12 JUMP JUMPDEST SWAP3 POP DUP3 DUP3 ADD SWAP1 POP DUP1 DUP3 GT ISZERO PUSH2 0x11A6 JUMPI PUSH2 0x11A5 PUSH2 0x1107 JUMP JUMPDEST JUMPDEST SWAP3 SWAP2 POP POP JUMP JUMPDEST PUSH1 0x0 DUP2 MLOAD SWAP1 POP PUSH2 0x11BB DUP2 PUSH2 0xD10 JUMP JUMPDEST SWAP3 SWAP2 POP POP JUMP JUMPDEST PUSH1 0x0 PUSH1 0x20 DUP3 DUP5 SUB SLT ISZERO PUSH2 0x11D7 JUMPI PUSH2 0x11D6 PUSH2 0xC6C JUMP JUMPDEST JUMPDEST PUSH1 0x0 PUSH2 0x11E5 DUP5 DUP3 DUP6 ADD PUSH2 0x11AC JUMP JUMPDEST SWAP2 POP POP SWAP3 SWAP2 POP POP JUMP JUMPDEST PUSH1 0x0 PUSH1 0x40 DUP3 ADD SWAP1 POP PUSH2 0x1203 PUSH1 0x0 DUP4 ADD DUP6 PUSH2 0xF46 JUMP JUMPDEST PUSH2 0x1210 PUSH1 0x20 DUP4 ADD DUP5 PUSH2 0xF46 JUMP JUMPDEST SWAP4 SWAP3 POP POP POP JUMP JUMPDEST PUSH32 0x4E487B7100000000000000000000000000000000000000000000000000000000 PUSH1 0x0 MSTORE PUSH1 0x32 PUSH1 0x4 MSTORE PUSH1 0x24 PUSH1 0x0 REVERT JUMPDEST PUSH1 0x0 PUSH1 0x60 DUP3 ADD SWAP1 POP PUSH2 0x125B PUSH1 0x0 DUP4 ADD DUP7 PUSH2 0xF46 JUMP JUMPDEST PUSH2 0x1268 PUSH1 0x20 DUP4 ADD DUP6 PUSH2 0xF46 JUMP JUMPDEST PUSH2 0x1275 PUSH1 0x40 DUP4 ADD DUP5 PUSH2 0xDF2 JUMP JUMPDEST SWAP5 SWAP4 POP POP POP POP JUMP JUMPDEST PUSH1 0x0 PUSH2 0x1288 DUP3 PUSH2 0xF12 JUMP JUMPDEST SWAP2 POP PUSH32 0xFFFFFFFFFFFFFFFFFFFFFFFFFFFFFFFFFFFFFFFFFFFFFFFFFFFFFFFFFFFFFFFF DUP3 SUB PUSH2 0x12BA JUMPI PUSH2 0x12B9 PUSH2 0x1107 JUMP JUMPDEST JUMPDEST PUSH1 0x1 DUP3 ADD SWAP1 POP SWAP2 SWAP1 POP JUMP JUMPDEST PUSH1 0x0 PUSH2 0x12D0 DUP3 PUSH2 0xF12 JUMP JUMPDEST SWAP2 POP PUSH2 0x12DB DUP4 PUSH2 0xF12 JUMP JUMPDEST SWAP3 POP DUP3 DUP3 SUB SWAP1 POP DUP2 DUP2 GT ISZERO PUSH2 0x12F3 JUMPI PUSH2 0x12F2 PUSH2 0x1107 JUMP JUMPDEST JUMPDEST SWAP3 SWAP2 POP POP JUMP INVALID LOG2 PUSH5 0x6970667358 0x22 SLT KECCAK256 EXTCODESIZE 0xCF JUMPI DUP3 0xB7 0xDC POP KECCAK256 0x23 DUP12 BYTE PUSH13 0x951800BD348495021FE12977E7 CHAINID PUSH18 0xD737476C1C64736F6C634300081400330000 "
        },
        "methodIdentifiers": {
          "changeDailyPositionFee(uint64)": "34af43be",
          "changeExecutionFee(uint64)": "0ec1f8bf",
          "doesPoolExist(address,uint8,address,address)": "1c135c4e",
          "getDailyPositionFee()": "cc506f35",
          "getExecutionFee()": "897293a4",
          "getExpectedFee(uint256)": "f3aaafbf",
          "isValidUniswapFork(address)": "7c310325",
          "owner()": "8da5cb5b",
          "renounceOwnership()": "715018a6",
          "transferOwnership(address)": "f2fde38b",
          "whitelistDexRouter(address)": "efb7c45f",
          "whitelistedDexes(address)": "4525eeb2"
        }
      }
    }
  }
}