{
  "_format": "hh-sol-artifact-1",
  "contractName": "MockUniswapV3Router",
  "sourceName": "contracts/Mocks/UniswapV3.sol",
  "abi": [
    {
      "inputs": [],
      "stateMutability": "nonpayable",
      "type": "constructor"
    },
    {
      "anonymous": false,
      "inputs": [
        {
          "indexed": true,
          "internalType": "address",
          "name": "tokenA",
          "type": "address"
        },
        {
          "indexed": true,
          "internalType": "address",
          "name": "tokenB",
          "type": "address"
        },
        {
          "indexed": false,
          "internalType": "uint24",
          "name": "fee",
          "type": "uint24"
        },
        {
          "indexed": false,
          "internalType": "address",
          "name": "pool",
          "type": "address"
        }
      ],
      "name": "PoolCreated",
      "type": "event"
    },
    {
      "inputs": [
        {
          "internalType": "address",
          "name": "tokenA",
          "type": "address"
        },
        {
          "internalType": "address",
          "name": "tokenB",
          "type": "address"
        },
        {
          "internalType": "uint24",
          "name": "fee",
          "type": "uint24"
        },
        {
          "internalType": "uint256",
          "name": "amountADesired",
          "type": "uint256"
        },
        {
          "internalType": "uint256",
          "name": "amountBDesired",
          "type": "uint256"
        }
      ],
      "name": "addLiquidity",
      "outputs": [
        {
          "internalType": "uint256",
          "name": "amountA",
          "type": "uint256"
        },
        {
          "internalType": "uint256",
          "name": "amountB",
          "type": "uint256"
        },
        {
          "internalType": "uint256",
          "name": "liquidity",
          "type": "uint256"
        }
      ],
      "stateMutability": "nonpayable",
      "type": "function"
    },
    {
      "inputs": [
        {
          "internalType": "address",
          "name": "tokenA",
          "type": "address"
        },
        {
          "internalType": "address",
          "name": "tokenB",
          "type": "address"
        },
        {
          "internalType": "uint24",
          "name": "fee",
          "type": "uint24"
        }
      ],
      "name": "createPool",
      "outputs": [
        {
          "internalType": "address",
          "name": "pool",
          "type": "address"
        }
      ],
      "stateMutability": "nonpayable",
      "type": "function"
    },
    {
      "inputs": [
        {
          "components": [
            {
              "internalType": "address",
              "name": "tokenIn",
              "type": "address"
            },
            {
              "internalType": "address",
              "name": "tokenOut",
              "type": "address"
            },
            {
              "internalType": "uint24",
              "name": "fee",
              "type": "uint24"
            },
            {
              "internalType": "address",
              "name": "recipient",
              "type": "address"
            },
            {
              "internalType": "uint256",
              "name": "deadline",
              "type": "uint256"
            },
            {
              "internalType": "uint256",
              "name": "amountIn",
              "type": "uint256"
            },
            {
              "internalType": "uint256",
              "name": "amountOutMinimum",
              "type": "uint256"
            },
            {
              "internalType": "uint160",
              "name": "sqrtPriceLimitX96",
              "type": "uint160"
            }
          ],
          "internalType": "struct IUniswapV3Router.ExactInputSingleParams",
          "name": "params",
          "type": "tuple"
        }
      ],
      "name": "exactInputSingle",
      "outputs": [
        {
          "internalType": "uint256",
          "name": "amountOut",
          "type": "uint256"
        }
      ],
      "stateMutability": "nonpayable",
      "type": "function"
    },
    {
      "inputs": [],
      "name": "factory",
      "outputs": [
        {
          "internalType": "address",
          "name": "",
          "type": "address"
        }
      ],
      "stateMutability": "view",
      "type": "function"
    },
    {
      "inputs": [
        {
          "internalType": "address",
          "name": "tokenA",
          "type": "address"
        },
        {
          "internalType": "address",
          "name": "tokenB",
          "type": "address"
        },
        {
          "internalType": "uint24",
          "name": "fee",
          "type": "uint24"
        }
      ],
      "name": "getPool",
      "outputs": [
        {
          "internalType": "address",
          "name": "pool",
          "type": "address"
        }
      ],
      "stateMutability": "view",
      "type": "function"
    },
    {
      "inputs": [
        {
          "internalType": "address",
          "name": "tokenA",
          "type": "address"
        },
        {
          "internalType": "address",
          "name": "tokenB",
          "type": "address"
        },
        {
          "internalType": "uint24",
          "name": "fee",
          "type": "uint24"
        }
      ],
      "name": "getPoolId",
      "outputs": [
        {
          "internalType": "bytes32",
          "name": "",
          "type": "bytes32"
        }
      ],
      "stateMutability": "pure",
      "type": "function"
    },
    {
      "inputs": [
        {
          "internalType": "address",
          "name": "tokenA",
          "type": "address"
        },
        {
          "internalType": "address",
          "name": "tokenB",
          "type": "address"
        },
        {
          "internalType": "uint24",
          "name": "fee",
          "type": "uint24"
        }
      ],
      "name": "getReserves",
      "outputs": [
        {
          "internalType": "uint256",
          "name": "reserveA",
          "type": "uint256"
        },
        {
          "internalType": "uint256",
          "name": "reserveB",
          "type": "uint256"
        }
      ],
      "stateMutability": "view",
      "type": "function"
    },
    {
      "inputs": [
        {
          "internalType": "bytes32",
          "name": "",
          "type": "bytes32"
        }
      ],
      "name": "poolAddresses",
      "outputs": [
        {
          "internalType": "address",
          "name": "",
          "type": "address"
        }
      ],
      "stateMutability": "view",
      "type": "function"
    },
    {
      "inputs": [
        {
          "internalType": "bytes32",
          "name": "",
          "type": "bytes32"
        }
      ],
      "name": "pools",
      "outputs": [
        {
          "internalType": "uint256",
          "name": "reserveA",
          "type": "uint256"
        },
        {
          "internalType": "uint256",
          "name": "reserveB",
          "type": "uint256"
        },
        {
          "internalType": "uint24",
          "name": "fee",
          "type": "uint24"
        }
      ],
      "stateMutability": "view",
      "type": "function"
    }
  ],
  "bytecode": "0x608060405234801561001057600080fd5b5030600260006101000a81548173ffffffffffffffffffffffffffffffffffffffff021916908373ffffffffffffffffffffffffffffffffffffffff16021790555061101e806100616000396000f3fe608060405234801561001057600080fd5b50600436106100935760003560e01c80638d670fe4116100665780638d670fe41461015b578063a16712951461018b578063b5217bb4146101bb578063b6ef9e3f146101ed578063c45a01551461021d57610093565b80630ad23382146100985780631698ee82146100ca57806333f1d4b5146100fa578063414bf3891461012b575b600080fd5b6100b260048036038101906100ad91906109b2565b61023b565b6040516100c193929190610a3c565b60405180910390f35b6100e460048036038101906100df9190610a73565b6103be565b6040516100f19190610ad5565b60405180910390f35b610114600480360381019061010f9190610a73565b61040b565b604051610122929190610af0565b60405180910390f35b61014560048036038101906101409190610b3e565b61044c565b6040516101529190610b6c565b60405180910390f35b61017560048036038101906101709190610a73565b61062e565b6040516101829190610ba0565b60405180910390f35b6101a560048036038101906101a09190610a73565b610664565b6040516101b29190610ad5565b60405180910390f35b6101d560048036038101906101d09190610be7565b61084c565b6040516101e493929190610c23565b60405180910390f35b61020760048036038101906102029190610be7565b610885565b6040516102149190610ad5565b60405180910390f35b6102256108b8565b6040516102329190610ad5565b60405180910390f35b60008060008061024c89898961062e565b90506000600160008381526020019081526020016000209050868160000160008282546102799190610c89565b92505081905550858160010160008282546102949190610c89565b925050819055508973ffffffffffffffffffffffffffffffffffffffff166323b872dd33308a6040518463ffffffff1660e01b81526004016102d893929190610cbd565b6020604051808303816000875af11580156102f7573d6000803e3d6000fd5b505050506040513d601f19601f8201168201806040525081019061031b9190610d2c565b508873ffffffffffffffffffffffffffffffffffffffff166323b872dd3330896040518463ffffffff1660e01b815260040161035993929190610cbd565b6020604051808303816000875af1158015610378573d6000803e3d6000fd5b505050506040513d601f19601f8201168201806040525081019061039c9190610d2c565b5085876103a99190610c89565b92508694508593505050955095509592505050565b6000806103cc85858561062e565b905060008082815260200190815260200160002060009054906101000a900473ffffffffffffffffffffffffffffffffffffffff169150509392505050565b600080600061041b86868661062e565b9050600060016000838152602001908152602001600020905080600001549350806001015492505050935093915050565b60008160800135421115610495576040517f08c379a000000000000000000000000000000000000000000000000000000000815260040161048c90610db6565b60405180910390fd5b60008260000160208101906104aa9190610dd6565b905060008360200160208101906104c19190610dd6565b90508360a0013592508360c00135831015610511576040517f08c379a000000000000000000000000000000000000000000000000000000000815260040161050890610e4f565b60405180910390fd5b8173ffffffffffffffffffffffffffffffffffffffff166323b872dd33308760a001356040518463ffffffff1660e01b815260040161055293929190610cbd565b6020604051808303816000875af1158015610571573d6000803e3d6000fd5b505050506040513d601f19601f820116820180604052508101906105959190610d2c565b508073ffffffffffffffffffffffffffffffffffffffff1663a9059cbb8560600160208101906105c59190610dd6565b856040518363ffffffff1660e01b81526004016105e3929190610e6f565b6020604051808303816000875af1158015610602573d6000803e3d6000fd5b505050506040513d601f19601f820116820180604052508101906106269190610d2c565b505050919050565b600083838360405160200161064593929190610f16565b6040516020818303038152906040528051906020012090509392505050565b60008061067285858561062e565b9050600073ffffffffffffffffffffffffffffffffffffffff1660008083815260200190815260200160002060009054906101000a900473ffffffffffffffffffffffffffffffffffffffff1673ffffffffffffffffffffffffffffffffffffffff1614610715576040517f08c379a000000000000000000000000000000000000000000000000000000000815260040161070c90610f9f565b60405180910390fd5b8060001c91508160008083815260200190815260200160002060006101000a81548173ffffffffffffffffffffffffffffffffffffffff021916908373ffffffffffffffffffffffffffffffffffffffff160217905550604051806060016040528060008152602001600081526020018462ffffff1681525060016000838152602001908152602001600020600082015181600001556020820151816001015560408201518160020160006101000a81548162ffffff021916908362ffffff1602179055509050508373ffffffffffffffffffffffffffffffffffffffff168573ffffffffffffffffffffffffffffffffffffffff167f97d23878912fda7f82bd5a8502f2c6e9086f5a4728f9054627788b3162f86ced858560405161083c929190610fbf565b60405180910390a3509392505050565b60016020528060005260406000206000915090508060000154908060010154908060020160009054906101000a900462ffffff16905083565b60006020528060005260406000206000915054906101000a900473ffffffffffffffffffffffffffffffffffffffff1681565b600260009054906101000a900473ffffffffffffffffffffffffffffffffffffffff1681565b600080fd5b600073ffffffffffffffffffffffffffffffffffffffff82169050919050565b600061090e826108e3565b9050919050565b61091e81610903565b811461092957600080fd5b50565b60008135905061093b81610915565b92915050565b600062ffffff82169050919050565b61095981610941565b811461096457600080fd5b50565b60008135905061097681610950565b92915050565b6000819050919050565b61098f8161097c565b811461099a57600080fd5b50565b6000813590506109ac81610986565b92915050565b600080600080600060a086880312156109ce576109cd6108de565b5b60006109dc8882890161092c565b95505060206109ed8882890161092c565b94505060406109fe88828901610967565b9350506060610a0f8882890161099d565b9250506080610a208882890161099d565b9150509295509295909350565b610a368161097c565b82525050565b6000606082019050610a516000830186610a2d565b610a5e6020830185610a2d565b610a6b6040830184610a2d565b949350505050565b600080600060608486031215610a8c57610a8b6108de565b5b6000610a9a8682870161092c565b9350506020610aab8682870161092c565b9250506040610abc86828701610967565b9150509250925092565b610acf81610903565b82525050565b6000602082019050610aea6000830184610ac6565b92915050565b6000604082019050610b056000830185610a2d565b610b126020830184610a2d565b9392505050565b600080fd5b60006101008284031215610b3557610b34610b19565b5b81905092915050565b60006101008284031215610b5557610b546108de565b5b6000610b6384828501610b1e565b91505092915050565b6000602082019050610b816000830184610a2d565b92915050565b6000819050919050565b610b9a81610b87565b82525050565b6000602082019050610bb56000830184610b91565b92915050565b610bc481610b87565b8114610bcf57600080fd5b50565b600081359050610be181610bbb565b92915050565b600060208284031215610bfd57610bfc6108de565b5b6000610c0b84828501610bd2565b91505092915050565b610c1d81610941565b82525050565b6000606082019050610c386000830186610a2d565b610c456020830185610a2d565b610c526040830184610c14565b949350505050565b7f4e487b7100000000000000000000000000000000000000000000000000000000600052601160045260246000fd5b6000610c948261097c565b9150610c9f8361097c565b9250828201905080821115610cb757610cb6610c5a565b5b92915050565b6000606082019050610cd26000830186610ac6565b610cdf6020830185610ac6565b610cec6040830184610a2d565b949350505050565b60008115159050919050565b610d0981610cf4565b8114610d1457600080fd5b50565b600081519050610d2681610d00565b92915050565b600060208284031215610d4257610d416108de565b5b6000610d5084828501610d17565b91505092915050565b600082825260208201905092915050565b7f5472616e73616374696f6e206578706972656400000000000000000000000000600082015250565b6000610da0601383610d59565b9150610dab82610d6a565b602082019050919050565b60006020820190508181036000830152610dcf81610d93565b9050919050565b600060208284031215610dec57610deb6108de565b5b6000610dfa8482850161092c565b91505092915050565b7f496e73756666696369656e74206f757470757420616d6f756e74000000000000600082015250565b6000610e39601a83610d59565b9150610e4482610e03565b602082019050919050565b60006020820190508181036000830152610e6881610e2c565b9050919050565b6000604082019050610e846000830185610ac6565b610e916020830184610a2d565b9392505050565b60008160601b9050919050565b6000610eb082610e98565b9050919050565b6000610ec282610ea5565b9050919050565b610eda610ed582610903565b610eb7565b82525050565b60008160e81b9050919050565b6000610ef882610ee0565b9050919050565b610f10610f0b82610941565b610eed565b82525050565b6000610f228286610ec9565b601482019150610f328285610ec9565b601482019150610f428284610eff565b600382019150819050949350505050565b7f506f6f6c20616c72656164792065786973747300000000000000000000000000600082015250565b6000610f89601383610d59565b9150610f9482610f53565b602082019050919050565b60006020820190508181036000830152610fb881610f7c565b9050919050565b6000604082019050610fd46000830185610c14565b610fe16020830184610ac6565b939250505056fea264697066735822122077f3df997a27e67e3bbb0b27644249a5f9f625e88c1c48daecb34af65e0b8e4764736f6c63430008140033",
  "linkReferences": {},
  "deployedLinkReferences": {}
}