{
  "_format": "hh-sol-artifact-1",
  "contractName": "MockUniswapV2Router",
  "sourceName": "contracts/Mocks/UniswapV2.sol",
  "abi": [
    {
      "inputs": [],
      "stateMutability": "nonpayable",
      "type": "constructor"
    },
    {
      "anonymous": false,
      "inputs": [
        {
          "indexed": true,
          "internalType": "address",
          "name": "tokenA",
          "type": "address"
        },
        {
          "indexed": true,
          "internalType": "address",
          "name": "tokenB",
          "type": "address"
        },
        {
          "indexed": false,
          "internalType": "address",
          "name": "pair",
          "type": "address"
        }
      ],
      "name": "PairCreated",
      "type": "event"
    },
    {
      "inputs": [
        {
          "internalType": "address",
          "name": "tokenA",
          "type": "address"
        },
        {
          "internalType": "address",
          "name": "tokenB",
          "type": "address"
        },
        {
          "internalType": "uint256",
          "name": "amountADesired",
          "type": "uint256"
        },
        {
          "internalType": "uint256",
          "name": "amountBDesired",
          "type": "uint256"
        },
        {
          "internalType": "uint256",
          "name": "amountAMin",
          "type": "uint256"
        },
        {
          "internalType": "uint256",
          "name": "amountBMin",
          "type": "uint256"
        },
        {
          "internalType": "address",
          "name": "to",
          "type": "address"
        },
        {
          "internalType": "uint256",
          "name": "deadline",
          "type": "uint256"
        }
      ],
      "name": "addLiquidity",
      "outputs": [
        {
          "internalType": "uint256",
          "name": "amountA",
          "type": "uint256"
        },
        {
          "internalType": "uint256",
          "name": "amountB",
          "type": "uint256"
        },
        {
          "internalType": "uint256",
          "name": "liquidity",
          "type": "uint256"
        }
      ],
      "stateMutability": "nonpayable",
      "type": "function"
    },
    {
      "inputs": [],
      "name": "factory",
      "outputs": [
        {
          "internalType": "address",
          "name": "",
          "type": "address"
        }
      ],
      "stateMutability": "view",
      "type": "function"
    },
    {
      "inputs": [
        {
          "internalType": "address",
          "name": "tokenA",
          "type": "address"
        },
        {
          "internalType": "address",
          "name": "tokenB",
          "type": "address"
        }
      ],
      "name": "getPair",
      "outputs": [
        {
          "internalType": "address",
          "name": "pair",
          "type": "address"
        }
      ],
      "stateMutability": "view",
      "type": "function"
    },
    {
      "inputs": [
        {
          "internalType": "address",
          "name": "tokenA",
          "type": "address"
        },
        {
          "internalType": "address",
          "name": "tokenB",
          "type": "address"
        }
      ],
      "name": "getPoolId",
      "outputs": [
        {
          "internalType": "bytes32",
          "name": "",
          "type": "bytes32"
        }
      ],
      "stateMutability": "pure",
      "type": "function"
    },
    {
      "inputs": [
        {
          "internalType": "address",
          "name": "tokenA",
          "type": "address"
        },
        {
          "internalType": "address",
          "name": "tokenB",
          "type": "address"
        }
      ],
      "name": "getReserves",
      "outputs": [
        {
          "internalType": "uint256",
          "name": "reserveA",
          "type": "uint256"
        },
        {
          "internalType": "uint256",
          "name": "reserveB",
          "type": "uint256"
        }
      ],
      "stateMutability": "view",
      "type": "function"
    },
    {
      "inputs": [
        {
          "internalType": "bytes32",
          "name": "",
          "type": "bytes32"
        }
      ],
      "name": "pairAddresses",
      "outputs": [
        {
          "internalType": "address",
          "name": "",
          "type": "address"
        }
      ],
      "stateMutability": "view",
      "type": "function"
    },
    {
      "inputs": [
        {
          "internalType": "bytes32",
          "name": "",
          "type": "bytes32"
        }
      ],
      "name": "pools",
      "outputs": [
        {
          "internalType": "uint256",
          "name": "reserveA",
          "type": "uint256"
        },
        {
          "internalType": "uint256",
          "name": "reserveB",
          "type": "uint256"
        }
      ],
      "stateMutability": "view",
      "type": "function"
    },
    {
      "inputs": [
        {
          "internalType": "uint256",
          "name": "amountIn",
          "type": "uint256"
        },
        {
          "internalType": "uint256",
          "name": "amountOutMin",
          "type": "uint256"
        },
        {
          "internalType": "address[]",
          "name": "path",
          "type": "address[]"
        },
        {
          "internalType": "address",
          "name": "to",
          "type": "address"
        },
        {
          "internalType": "uint256",
          "name": "deadline",
          "type": "uint256"
        }
      ],
      "name": "swapExactTokensForTokens",
      "outputs": [
        {
          "internalType": "uint256[]",
          "name": "amounts",
          "type": "uint256[]"
        }
      ],
      "stateMutability": "nonpayable",
      "type": "function"
    }
  ],
  "bytecode": "0x608060405234801561001057600080fd5b5030600260006101000a81548173ffffffffffffffffffffffffffffffffffffffff021916908373ffffffffffffffffffffffffffffffffffffffff16021790555061118e806100616000396000f3fe608060405234801561001057600080fd5b50600436106100885760003560e01c8063c45a01551161005b578063c45a01551461014e578063d52bb6f41461016c578063e6a439051461019d578063e8e33700146101cd57610088565b80632ef61c211461008d57806338ed1739146100bd5780639d910006146100ed578063b5217bb41461011d575b600080fd5b6100a760048036038101906100a29190610977565b6101ff565b6040516100b491906109d0565b60405180910390f35b6100d760048036038101906100d29190610a86565b610232565b6040516100e49190610bde565b60405180910390f35b61010760048036038101906101029190610c2c565b610519565b6040516101149190610c68565b60405180910390f35b61013760048036038101906101329190610c2c565b61054c565b604051610145929190610c92565b60405180910390f35b610156610570565b6040516101639190610c68565b60405180910390f35b61018660048036038101906101819190610977565b610596565b604051610194929190610c92565b60405180910390f35b6101b760048036038101906101b29190610977565b6105d5565b6040516101c49190610c68565b60405180910390f35b6101e760048036038101906101e29190610cbb565b610620565b6040516101f693929190610d71565b60405180910390f35b60008282604051602001610214929190610df0565b60405160208183030381529060405280519060200120905092915050565b6060600285859050101561027b576040517f08c379a000000000000000000000000000000000000000000000000000000000815260040161027290610e79565b60405180910390fd5b814211156102be576040517f08c379a00000000000000000000000000000000000000000000000000000000081526004016102b590610ee5565b60405180910390fd5b6000858560008181106102d4576102d3610f05565b5b90506020020160208101906102e99190610f34565b9050600086866001898990506102ff9190610f90565b81811061030f5761030e610f05565b5b90506020020160208101906103249190610f34565b905060008990508881101561036e576040517f08c379a000000000000000000000000000000000000000000000000000000000815260040161036590611010565b60405180910390fd5b8273ffffffffffffffffffffffffffffffffffffffff166323b872dd33308d6040518463ffffffff1660e01b81526004016103ab93929190611030565b6020604051808303816000875af11580156103ca573d6000803e3d6000fd5b505050506040513d601f19601f820116820180604052508101906103ee919061109f565b508173ffffffffffffffffffffffffffffffffffffffff1663a9059cbb87836040518363ffffffff1660e01b815260040161042a9291906110cc565b6020604051808303816000875af1158015610449573d6000803e3d6000fd5b505050506040513d601f19601f8201168201806040525081019061046d919061109f565b508787905067ffffffffffffffff81111561048b5761048a6110f5565b5b6040519080825280602002602001820160405280156104b95781602001602082028036833780820191505090505b50935089846000815181106104d1576104d0610f05565b5b602002602001018181525050808460018a8a90506104ef9190610f90565b81518110610500576104ff610f05565b5b6020026020010181815250505050509695505050505050565b60006020528060005260406000206000915054906101000a900473ffffffffffffffffffffffffffffffffffffffff1681565b60016020528060005260406000206000915090508060000154908060010154905082565b600260009054906101000a900473ffffffffffffffffffffffffffffffffffffffff1681565b60008060006105a585856101ff565b90506000600160008381526020019081526020016000209050806000015493508060010154925050509250929050565b6000806105e284846101ff565b905060008082815260200190815260200160002060009054906101000a900473ffffffffffffffffffffffffffffffffffffffff1691505092915050565b600080600083421115610668576040517f08c379a000000000000000000000000000000000000000000000000000000000815260040161065f90610ee5565b60405180910390fd5b60006106748c8c6101ff565b905060006001600083815260200190815260200160002090508a8160000160008282546106a19190611124565b92505081905550898160010160008282546106bc9190611124565b925050819055508c73ffffffffffffffffffffffffffffffffffffffff166323b872dd33308e6040518463ffffffff1660e01b815260040161070093929190611030565b6020604051808303816000875af115801561071f573d6000803e3d6000fd5b505050506040513d601f19601f82011682018060405250810190610743919061109f565b508b73ffffffffffffffffffffffffffffffffffffffff166323b872dd33308d6040518463ffffffff1660e01b815260040161078193929190611030565b6020604051808303816000875af11580156107a0573d6000803e3d6000fd5b505050506040513d601f19601f820116820180604052508101906107c4919061109f565b50898b6107d19190611124565b92508a9450899350600073ffffffffffffffffffffffffffffffffffffffff1660008084815260200190815260200160002060009054906101000a900473ffffffffffffffffffffffffffffffffffffffff1673ffffffffffffffffffffffffffffffffffffffff16036108ff5760008260001c90508060008085815260200190815260200160002060006101000a81548173ffffffffffffffffffffffffffffffffffffffff021916908373ffffffffffffffffffffffffffffffffffffffff1602179055508c73ffffffffffffffffffffffffffffffffffffffff168e73ffffffffffffffffffffffffffffffffffffffff167fa92a2b95c8d8436f6ac4c673c61487364f877efb9534d4296fad8ef904546c94836040516108f59190610c68565b60405180910390a3505b5050985098509895505050505050565b600080fd5b600080fd5b600073ffffffffffffffffffffffffffffffffffffffff82169050919050565b600061094482610919565b9050919050565b61095481610939565b811461095f57600080fd5b50565b6000813590506109718161094b565b92915050565b6000806040838503121561098e5761098d61090f565b5b600061099c85828601610962565b92505060206109ad85828601610962565b9150509250929050565b6000819050919050565b6109ca816109b7565b82525050565b60006020820190506109e560008301846109c1565b92915050565b6000819050919050565b6109fe816109eb565b8114610a0957600080fd5b50565b600081359050610a1b816109f5565b92915050565b600080fd5b600080fd5b600080fd5b60008083601f840112610a4657610a45610a21565b5b8235905067ffffffffffffffff811115610a6357610a62610a26565b5b602083019150836020820283011115610a7f57610a7e610a2b565b5b9250929050565b60008060008060008060a08789031215610aa357610aa261090f565b5b6000610ab189828a01610a0c565b9650506020610ac289828a01610a0c565b955050604087013567ffffffffffffffff811115610ae357610ae2610914565b5b610aef89828a01610a30565b94509450506060610b0289828a01610962565b9250506080610b1389828a01610a0c565b9150509295509295509295565b600081519050919050565b600082825260208201905092915050565b6000819050602082019050919050565b610b55816109eb565b82525050565b6000610b678383610b4c565b60208301905092915050565b6000602082019050919050565b6000610b8b82610b20565b610b958185610b2b565b9350610ba083610b3c565b8060005b83811015610bd1578151610bb88882610b5b565b9750610bc383610b73565b925050600181019050610ba4565b5085935050505092915050565b60006020820190508181036000830152610bf88184610b80565b905092915050565b610c09816109b7565b8114610c1457600080fd5b50565b600081359050610c2681610c00565b92915050565b600060208284031215610c4257610c4161090f565b5b6000610c5084828501610c17565b91505092915050565b610c6281610939565b82525050565b6000602082019050610c7d6000830184610c59565b92915050565b610c8c816109eb565b82525050565b6000604082019050610ca76000830185610c83565b610cb46020830184610c83565b9392505050565b600080600080600080600080610100898b031215610cdc57610cdb61090f565b5b6000610cea8b828c01610962565b9850506020610cfb8b828c01610962565b9750506040610d0c8b828c01610a0c565b9650506060610d1d8b828c01610a0c565b9550506080610d2e8b828c01610a0c565b94505060a0610d3f8b828c01610a0c565b93505060c0610d508b828c01610962565b92505060e0610d618b828c01610a0c565b9150509295985092959890939650565b6000606082019050610d866000830186610c83565b610d936020830185610c83565b610da06040830184610c83565b949350505050565b60008160601b9050919050565b6000610dc082610da8565b9050919050565b6000610dd282610db5565b9050919050565b610dea610de582610939565b610dc7565b82525050565b6000610dfc8285610dd9565b601482019150610e0c8284610dd9565b6014820191508190509392505050565b600082825260208201905092915050565b7f496e76616c696420706174680000000000000000000000000000000000000000600082015250565b6000610e63600c83610e1c565b9150610e6e82610e2d565b602082019050919050565b60006020820190508181036000830152610e9281610e56565b9050919050565b7f5472616e73616374696f6e206578706972656400000000000000000000000000600082015250565b6000610ecf601383610e1c565b9150610eda82610e99565b602082019050919050565b60006020820190508181036000830152610efe81610ec2565b9050919050565b7f4e487b7100000000000000000000000000000000000000000000000000000000600052603260045260246000fd5b600060208284031215610f4a57610f4961090f565b5b6000610f5884828501610962565b91505092915050565b7f4e487b7100000000000000000000000000000000000000000000000000000000600052601160045260246000fd5b6000610f9b826109eb565b9150610fa6836109eb565b9250828203905081811115610fbe57610fbd610f61565b5b92915050565b7f496e73756666696369656e74206f757470757420616d6f756e74000000000000600082015250565b6000610ffa601a83610e1c565b915061100582610fc4565b602082019050919050565b6000602082019050818103600083015261102981610fed565b9050919050565b60006060820190506110456000830186610c59565b6110526020830185610c59565b61105f6040830184610c83565b949350505050565b60008115159050919050565b61107c81611067565b811461108757600080fd5b50565b60008151905061109981611073565b92915050565b6000602082840312156110b5576110b461090f565b5b60006110c38482850161108a565b91505092915050565b60006040820190506110e16000830185610c59565b6110ee6020830184610c83565b9392505050565b7f4e487b7100000000000000000000000000000000000000000000000000000000600052604160045260246000fd5b600061112f826109eb565b915061113a836109eb565b925082820190508082111561115257611151610f61565b5b9291505056fea26469706673582212200f47abee9ba35582247c4a2ad4b17d3e3fb96e5a9d8b38dbc5aa5980fe3ec2eb64736f6c63430008140033",
  "linkReferences": {},
  "deployedLinkReferences": {}
}