{
  "_format": "hh-sol-artifact-1",
  "contractName": "PositionManager",
  "sourceName": "contracts/PositionManager.sol",
  "abi": [
    {
      "inputs": [
        {
          "internalType": "address",
          "name": "tradeExecutor",
          "type": "address"
        },
        {
          "internalType": "uint64",
          "name": "dailyPositionFee",
          "type": "uint64"
        },
        {
          "internalType": "uint64",
          "name": "executionFee",
          "type": "uint64"
        }
      ],
      "stateMutability": "nonpayable",
      "type": "constructor"
    },
    {
      "inputs": [
        {
          "internalType": "address",
          "name": "target",
          "type": "address"
        }
      ],
      "name": "AddressEmptyCode",
      "type": "error"
    },
    {
      "inputs": [
        {
          "internalType": "address",
          "name": "account",
          "type": "address"
        }
      ],
      "name": "AddressInsufficientBalance",
      "type": "error"
    },
    {
      "inputs": [],
      "name": "FailedInnerCall",
      "type": "error"
    },
    {
      "inputs": [
        {
          "internalType": "address",
          "name": "owner",
          "type": "address"
        }
      ],
      "name": "OwnableInvalidOwner",
      "type": "error"
    },
    {
      "inputs": [
        {
          "internalType": "address",
          "name": "account",
          "type": "address"
        }
      ],
      "name": "OwnableUnauthorizedAccount",
      "type": "error"
    },
    {
      "inputs": [],
      "name": "ReentrancyGuardReentrantCall",
      "type": "error"
    },
    {
      "inputs": [
        {
          "internalType": "address",
          "name": "token",
          "type": "address"
        }
      ],
      "name": "SafeERC20FailedOperation",
      "type": "error"
    },
    {
      "anonymous": false,
      "inputs": [
        {
          "indexed": false,
          "internalType": "address",
          "name": "dexRouter",
          "type": "address"
        }
      ],
      "name": "DexRouterWhitelisted",
      "type": "event"
    },
    {
      "anonymous": false,
      "inputs": [
        {
          "indexed": false,
          "internalType": "bytes",
          "name": "data",
          "type": "bytes"
        }
      ],
      "name": "LogBytes",
      "type": "event"
    },
    {
      "anonymous": false,
      "inputs": [
        {
          "indexed": true,
          "internalType": "address",
          "name": "previousOwner",
          "type": "address"
        },
        {
          "indexed": true,
          "internalType": "address",
          "name": "newOwner",
          "type": "address"
        }
      ],
      "name": "OwnershipTransferred",
      "type": "event"
    },
    {
      "anonymous": false,
      "inputs": [
        {
          "indexed": true,
          "internalType": "address",
          "name": "wallet",
          "type": "address"
        },
        {
          "indexed": true,
          "internalType": "uint256",
          "name": "positionId",
          "type": "uint256"
        },
        {
          "indexed": false,
          "internalType": "address",
          "name": "dexRouter",
          "type": "address"
        },
        {
          "indexed": false,
          "internalType": "address",
          "name": "tokenIn",
          "type": "address"
        },
        {
          "indexed": false,
          "internalType": "address",
          "name": "tokenOut",
          "type": "address"
        },
        {
          "indexed": false,
          "internalType": "uint256",
          "name": "quantity",
          "type": "uint256"
        },
        {
          "indexed": false,
          "internalType": "uint256",
          "name": "executionValue",
          "type": "uint256"
        },
        {
          "indexed": false,
          "internalType": "uint32",
          "name": "endTimestamp",
          "type": "uint32"
        },
        {
          "indexed": false,
          "internalType": "uint24",
          "name": "fee",
          "type": "uint24"
        },
        {
          "indexed": false,
          "internalType": "enum PositionManager.ExecutionCondition",
          "name": "condition",
          "type": "uint8"
        },
        {
          "indexed": false,
          "internalType": "enum DexChecker.UniswapABI",
          "name": "forkABI",
          "type": "uint8"
        }
      ],
      "name": "PositionCreated",
      "type": "event"
    },
    {
      "anonymous": false,
      "inputs": [
        {
          "indexed": true,
          "internalType": "uint256",
          "name": "positionId",
          "type": "uint256"
        }
      ],
      "name": "PositionExecuted",
      "type": "event"
    },
    {
      "anonymous": false,
      "inputs": [
        {
          "indexed": true,
          "internalType": "uint256",
          "name": "positionId",
          "type": "uint256"
        },
        {
          "indexed": false,
          "internalType": "uint256",
          "name": "newEndTimestamp",
          "type": "uint256"
        }
      ],
      "name": "PositionProlonged",
      "type": "event"
    },
    {
      "anonymous": false,
      "inputs": [
        {
          "indexed": true,
          "internalType": "address",
          "name": "wallet",
          "type": "address"
        },
        {
          "indexed": true,
          "internalType": "uint256",
          "name": "positionId",
          "type": "uint256"
        }
      ],
      "name": "PositionWithdrawn",
      "type": "event"
    },
    {
      "inputs": [
        {
          "internalType": "uint64",
          "name": "newFee",
          "type": "uint64"
        }
      ],
      "name": "changeDailyPositionFee",
      "outputs": [],
      "stateMutability": "nonpayable",
      "type": "function"
    },
    {
      "inputs": [
        {
          "internalType": "uint64",
          "name": "newFee",
          "type": "uint64"
        }
      ],
      "name": "changeExecutionFee",
      "outputs": [],
      "stateMutability": "nonpayable",
      "type": "function"
    },
    {
      "inputs": [
        {
          "internalType": "address",
          "name": "tokenIn",
          "type": "address"
        },
        {
          "internalType": "address",
          "name": "tokenOut",
          "type": "address"
        },
        {
          "internalType": "uint256",
          "name": "quantity",
          "type": "uint256"
        },
        {
          "internalType": "uint256",
          "name": "swapPrice",
          "type": "uint256"
        },
        {
          "internalType": "address",
          "name": "dexRouter",
          "type": "address"
        },
        {
          "internalType": "uint32",
          "name": "duration",
          "type": "uint32"
        },
        {
          "internalType": "enum PositionManager.ExecutionCondition",
          "name": "condition",
          "type": "uint8"
        }
      ],
      "name": "createPosition",
      "outputs": [],
      "stateMutability": "payable",
      "type": "function"
    },
    {
      "inputs": [
        {
          "internalType": "address",
          "name": "dexRouter",
          "type": "address"
        },
        {
          "internalType": "enum DexChecker.UniswapABI",
          "name": "dexType",
          "type": "uint8"
        },
        {
          "internalType": "address",
          "name": "tokenIn",
          "type": "address"
        },
        {
          "internalType": "address",
          "name": "tokenOut",
          "type": "address"
        }
      ],
      "name": "doesPoolExist",
      "outputs": [
        {
          "internalType": "bool",
          "name": "",
          "type": "bool"
        },
        {
          "internalType": "uint24",
          "name": "",
          "type": "uint24"
        }
      ],
      "stateMutability": "view",
      "type": "function"
    },
    {
      "inputs": [
        {
          "internalType": "uint256",
          "name": "positionId",
          "type": "uint256"
        }
      ],
      "name": "executeSwap",
      "outputs": [],
      "stateMutability": "nonpayable",
      "type": "function"
    },
    {
      "inputs": [],
      "name": "getDailyPositionFee",
      "outputs": [
        {
          "internalType": "uint256",
          "name": "",
          "type": "uint256"
        }
      ],
      "stateMutability": "view",
      "type": "function"
    },
    {
      "inputs": [],
      "name": "getExecutionFee",
      "outputs": [
        {
          "internalType": "uint256",
          "name": "",
          "type": "uint256"
        }
      ],
      "stateMutability": "view",
      "type": "function"
    },
    {
      "inputs": [
        {
          "internalType": "uint256",
          "name": "duration",
          "type": "uint256"
        }
      ],
      "name": "getExpectedFee",
      "outputs": [
        {
          "internalType": "uint256",
          "name": "",
          "type": "uint256"
        }
      ],
      "stateMutability": "view",
      "type": "function"
    },
    {
      "inputs": [
        {
          "internalType": "address",
          "name": "dex",
          "type": "address"
        }
      ],
      "name": "isValidUniswapFork",
      "outputs": [
        {
          "internalType": "enum DexChecker.UniswapABI",
          "name": "",
          "type": "uint8"
        }
      ],
      "stateMutability": "view",
      "type": "function"
    },
    {
      "inputs": [],
      "name": "owner",
      "outputs": [
        {
          "internalType": "address",
          "name": "",
          "type": "address"
        }
      ],
      "stateMutability": "view",
      "type": "function"
    },
    {
      "inputs": [
        {
          "internalType": "uint256",
          "name": "positionId",
          "type": "uint256"
        },
        {
          "internalType": "uint32",
          "name": "duration",
          "type": "uint32"
        }
      ],
      "name": "prolongPosition",
      "outputs": [],
      "stateMutability": "payable",
      "type": "function"
    },
    {
      "inputs": [],
      "name": "renounceOwnership",
      "outputs": [],
      "stateMutability": "nonpayable",
      "type": "function"
    },
    {
      "inputs": [],
      "name": "s_positionId",
      "outputs": [
        {
          "internalType": "uint256",
          "name": "",
          "type": "uint256"
        }
      ],
      "stateMutability": "view",
      "type": "function"
    },
    {
      "inputs": [
        {
          "internalType": "uint256",
          "name": "positionId",
          "type": "uint256"
        }
      ],
      "name": "seePositionAttributes",
      "outputs": [
        {
          "components": [
            {
              "internalType": "address",
              "name": "wallet",
              "type": "address"
            },
            {
              "internalType": "address",
              "name": "dexRouter",
              "type": "address"
            },
            {
              "internalType": "address",
              "name": "tokenIn",
              "type": "address"
            },
            {
              "internalType": "address",
              "name": "tokenOut",
              "type": "address"
            },
            {
              "internalType": "uint256",
              "name": "quantity",
              "type": "uint256"
            },
            {
              "internalType": "uint256",
              "name": "executionValue",
              "type": "uint256"
            },
            {
              "internalType": "uint32",
              "name": "endTimestamp",
              "type": "uint32"
            },
            {
              "internalType": "uint24",
              "name": "fee",
              "type": "uint24"
            },
            {
              "internalType": "bool",
              "name": "executed",
              "type": "bool"
            },
            {
              "internalType": "enum PositionManager.ExecutionCondition",
              "name": "condition",
              "type": "uint8"
            },
            {
              "internalType": "enum DexChecker.UniswapABI",
              "name": "forkABI",
              "type": "uint8"
            }
          ],
          "internalType": "struct PositionManager.Position",
          "name": "",
          "type": "tuple"
        }
      ],
      "stateMutability": "view",
      "type": "function"
    },
    {
      "inputs": [
        {
          "internalType": "address",
          "name": "newTradeExecutor",
          "type": "address"
        }
      ],
      "name": "setNewTradeExecutor",
      "outputs": [],
      "stateMutability": "nonpayable",
      "type": "function"
    },
    {
      "inputs": [
        {
          "internalType": "address",
          "name": "newOwner",
          "type": "address"
        }
      ],
      "name": "transferOwnership",
      "outputs": [],
      "stateMutability": "nonpayable",
      "type": "function"
    },
    {
      "inputs": [
        {
          "internalType": "address",
          "name": "dexRouter",
          "type": "address"
        }
      ],
      "name": "whitelistDexRouter",
      "outputs": [],
      "stateMutability": "nonpayable",
      "type": "function"
    },
    {
      "inputs": [
        {
          "internalType": "address",
          "name": "",
          "type": "address"
        }
      ],
      "name": "whitelistedDexes",
      "outputs": [
        {
          "internalType": "bool",
          "name": "isWhitelisted",
          "type": "bool"
        },
        {
          "internalType": "enum DexChecker.UniswapABI",
          "name": "dexType",
          "type": "uint8"
        }
      ],
      "stateMutability": "view",
      "type": "function"
    },
    {
      "inputs": [
        {
          "internalType": "uint256",
          "name": "positionId",
          "type": "uint256"
        }
      ],
      "name": "withdrawPosition",
      "outputs": [],
      "stateMutability": "nonpayable",
      "type": "function"
    }
  ],
  "bytecode": "0x60806040523480156200001157600080fd5b5060405162004074380380620040748339818101604052810190620000379190620002e0565b81818480806001600081905550600073ffffffffffffffffffffffffffffffffffffffff168173ffffffffffffffffffffffffffffffffffffffff1603620000b95760006040517f1e4fbdf7000000000000000000000000000000000000000000000000000000008152600401620000b091906200034d565b60405180910390fd5b620000ca816200016b60201b60201c565b505082600360006101000a81548167ffffffffffffffff021916908367ffffffffffffffff16021790555081600360086101000a81548167ffffffffffffffff021916908367ffffffffffffffff16021790555050505082600560006101000a81548173ffffffffffffffffffffffffffffffffffffffff021916908373ffffffffffffffffffffffffffffffffffffffff1602179055505050506200036a565b6000600160009054906101000a900473ffffffffffffffffffffffffffffffffffffffff16905081600160006101000a81548173ffffffffffffffffffffffffffffffffffffffff021916908373ffffffffffffffffffffffffffffffffffffffff1602179055508173ffffffffffffffffffffffffffffffffffffffff168173ffffffffffffffffffffffffffffffffffffffff167f8be0079c531659141344cd1fd0a4f28419497f9722a3daafe3b4186f6b6457e060405160405180910390a35050565b600080fd5b600073ffffffffffffffffffffffffffffffffffffffff82169050919050565b6000620002638262000236565b9050919050565b620002758162000256565b81146200028157600080fd5b50565b60008151905062000295816200026a565b92915050565b600067ffffffffffffffff82169050919050565b620002ba816200029b565b8114620002c657600080fd5b50565b600081519050620002da81620002af565b92915050565b600080600060608486031215620002fc57620002fb62000231565b5b60006200030c8682870162000284565b93505060206200031f86828701620002c9565b92505060406200033286828701620002c9565b9150509250925092565b620003478162000256565b82525050565b60006020820190506200036460008301846200033c565b92915050565b613cfa806200037a6000396000f3fe6080604052600436106101145760003560e01c80637c310325116100a0578063cc506f3511610064578063cc506f3514610381578063ea63cd39146103ac578063efb7c45f146103d7578063f2fde38b14610400578063f3aaafbf1461042957610114565b80637c310325146102a95780637e41e9cc146102e6578063897293a4146103025780638da5cb5b1461032d578063a9ab232b1461035857610114565b80633f582c87116100e75780633f582c87146101e65780634525eeb214610202578063525c12ea146102405780636791ccf114610269578063715018a61461029257610114565b80630ec1f8bf146101195780631353b507146101425780631c135c4e1461017f57806334af43be146101bd575b600080fd5b34801561012557600080fd5b50610140600480360381019061013b919061292b565b610466565b005b34801561014e57600080fd5b506101696004803603810190610164919061298e565b61049a565b6040516101769190612c03565b60405180910390f35b34801561018b57600080fd5b506101a660048036038101906101a19190612c70565b61070e565b6040516101b4929190612cf5565b60405180910390f35b3480156101c957600080fd5b506101e460048036038101906101df919061292b565b6107a1565b005b61020060048036038101906101fb9190612d4a565b6107d5565b005b34801561020e57600080fd5b5061022960048036038101906102249190612d8a565b6109a6565b604051610237929190612dc6565b60405180910390f35b34801561024c57600080fd5b506102676004803603810190610262919061298e565b6109e4565b005b34801561027557600080fd5b50610290600480360381019061028b9190612d8a565b610bbb565b005b34801561029e57600080fd5b506102a7610c07565b005b3480156102b557600080fd5b506102d060048036038101906102cb9190612d8a565b610c1b565b6040516102dd9190612def565b60405180910390f35b61030060048036038101906102fb9190612e2f565b610d81565b005b34801561030e57600080fd5b506103176114e1565b6040516103249190612ee0565b60405180910390f35b34801561033957600080fd5b50610342611509565b60405161034f9190612f0a565b60405180910390f35b34801561036457600080fd5b5061037f600480360381019061037a919061298e565b611533565b005b34801561038d57600080fd5b50610396611c7d565b6040516103a39190612ee0565b60405180910390f35b3480156103b857600080fd5b506103c1611ca5565b6040516103ce9190612ee0565b60405180910390f35b3480156103e357600080fd5b506103fe60048036038101906103f99190612d8a565b611cab565b005b34801561040c57600080fd5b5061042760048036038101906104229190612d8a565b611db7565b005b34801561043557600080fd5b50610450600480360381019061044b919061298e565b611e3d565b60405161045d9190612ee0565b60405180910390f35b61046e611e6b565b80600360086101000a81548167ffffffffffffffff021916908367ffffffffffffffff16021790555050565b6104a26127f4565b60066000838152602001908152602001600020604051806101600160405290816000820160009054906101000a900473ffffffffffffffffffffffffffffffffffffffff1673ffffffffffffffffffffffffffffffffffffffff1673ffffffffffffffffffffffffffffffffffffffff1681526020016001820160009054906101000a900473ffffffffffffffffffffffffffffffffffffffff1673ffffffffffffffffffffffffffffffffffffffff1673ffffffffffffffffffffffffffffffffffffffff1681526020016002820160009054906101000a900473ffffffffffffffffffffffffffffffffffffffff1673ffffffffffffffffffffffffffffffffffffffff1673ffffffffffffffffffffffffffffffffffffffff1681526020016003820160009054906101000a900473ffffffffffffffffffffffffffffffffffffffff1673ffffffffffffffffffffffffffffffffffffffff1673ffffffffffffffffffffffffffffffffffffffff16815260200160048201548152602001600582015481526020016006820160009054906101000a900463ffffffff1663ffffffff1663ffffffff1681526020016006820160049054906101000a900462ffffff1662ffffff1662ffffff1681526020016006820160079054906101000a900460ff161515151581526020016006820160089054906101000a900460ff1660018111156106b6576106b5612a63565b5b60018111156106c8576106c7612a63565b5b81526020016006820160099054906101000a900460ff1660018111156106f1576106f0612a63565b5b600181111561070357610702612a63565b5b815250509050919050565b60008060018081111561072457610723612a63565b5b85600181111561073757610736612a63565b5b0361075057610747868585611ef2565b91509150610798565b6000600181111561076457610763612a63565b5b85600181111561077757610776612a63565b5b036107905761078786858561204b565b91509150610798565b600080915091505b94509492505050565b6107a9611e6b565b80600360006101000a81548167ffffffffffffffff021916908367ffffffffffffffff16021790555050565b813373ffffffffffffffffffffffffffffffffffffffff166006600083815260200190815260200160002060000160009054906101000a900473ffffffffffffffffffffffffffffffffffffffff1673ffffffffffffffffffffffffffffffffffffffff161461087a576040517f08c379a000000000000000000000000000000000000000000000000000000000815260040161087190612f82565b60405180910390fd5b610882612239565b60006006600085815260200190815260200160002090508263ffffffff166108a8611c7d565b6108b29190612fd1565b3410156108f4576040517f08c379a00000000000000000000000000000000000000000000000000000000081526004016108eb9061305f565b60405180910390fd5b8262015180610903919061307f565b8160060160008282829054906101000a900463ffffffff1661092591906130bc565b92506101000a81548163ffffffff021916908363ffffffff16021790555061094c3461227f565b837fc9a4971d552237825a5c93918e234dbd2d48393118ba17e030e5c2c2b48acca18260060160009054906101000a900463ffffffff16604051610990919061312f565b60405180910390a2506109a1612336565b505050565b60026020528060005260406000206000915090508060000160009054906101000a900460ff16908060000160019054906101000a900460ff16905082565b803373ffffffffffffffffffffffffffffffffffffffff166006600083815260200190815260200160002060000160009054906101000a900473ffffffffffffffffffffffffffffffffffffffff1673ffffffffffffffffffffffffffffffffffffffff1614610a89576040517f08c379a0000000000000000000000000000000000000000000000000000000008152600401610a8090612f82565b60405180910390fd5b610a91612239565b60006006600084815260200190815260200160002090508060060160079054906101000a900460ff1615610afa576040517f08c379a0000000000000000000000000000000000000000000000000000000008152600401610af190613196565b60405180910390fd5b60018160060160076101000a81548160ff021916908315150217905550610b6a3382600401548360020160009054906101000a900473ffffffffffffffffffffffffffffffffffffffff1673ffffffffffffffffffffffffffffffffffffffff166123409092919063ffffffff16565b823373ffffffffffffffffffffffffffffffffffffffff167fc73cb9445bd4c612f5ab737521a91a974dc06cbb201b699d3a7958f4660c2cb760405160405180910390a350610bb7612336565b5050565b610bc3611e6b565b80600560006101000a81548173ffffffffffffffffffffffffffffffffffffffff021916908373ffffffffffffffffffffffffffffffffffffffff16021790555050565b610c0f611e6b565b610c1960006123bf565b565b600080823b905060008103610c65576040517f08c379a0000000000000000000000000000000000000000000000000000000008152600401610c5c90613202565b60405180910390fd5b60008167ffffffffffffffff811115610c8157610c80613222565b5b6040519080825280601f01601f191660200182016040528015610cb35781602001600182028036833780820191505090505b50905081600060208301863c6000610ceb827f414bf389314e949f7d65d58dd6b67d69018994750e6fdc230761f1010efe4993612485565b90506000610d19837f38ed1739ee07daf49933f1800d1a9bc8d39a6876ea11e643f9c4c39c66df0ee8612485565b90508115610d2e576000945050505050610d7c565b8015610d41576001945050505050610d7c565b6040517f08c379a0000000000000000000000000000000000000000000000000000000008152600401610d73906132c3565b60405180910390fd5b919050565b610d89612239565b8163ffffffff16610d98611c7d565b610da29190612fd1565b341015610de4576040517f08c379a0000000000000000000000000000000000000000000000000000000008152600401610ddb9061305f565b60405180910390fd5b60008411610e27576040517f08c379a0000000000000000000000000000000000000000000000000000000008152600401610e1e9061332f565b60405180910390fd5b848773ffffffffffffffffffffffffffffffffffffffff166370a08231336040518263ffffffff1660e01b8152600401610e619190612f0a565b602060405180830381865afa158015610e7e573d6000803e3d6000fd5b505050506040513d601f19601f82011682018060405250810190610ea29190613364565b1015610ee3576040517f08c379a0000000000000000000000000000000000000000000000000000000008152600401610eda906133dd565b60405180910390fd5b600260008473ffffffffffffffffffffffffffffffffffffffff1673ffffffffffffffffffffffffffffffffffffffff16815260200190815260200160002060000160009054906101000a900460ff16610f72576040517f08c379a0000000000000000000000000000000000000000000000000000000008152600401610f6990613449565b60405180910390fd5b600080610fd085600260008873ffffffffffffffffffffffffffffffffffffffff1673ffffffffffffffffffffffffffffffffffffffff16815260200190815260200160002060000160019054906101000a900460ff168b8b61070e565b9150915081611014576040517f08c379a000000000000000000000000000000000000000000000000000000000815260040161100b906134b5565b60405180910390fd5b60008462015180611025919061307f565b4261103091906130bc565b90506000600260008873ffffffffffffffffffffffffffffffffffffffff1673ffffffffffffffffffffffffffffffffffffffff16815260200190815260200160002060000160019054906101000a900460ff1690506110b333308b8e73ffffffffffffffffffffffffffffffffffffffff1661251c909392919063ffffffff16565b6040518061016001604052803373ffffffffffffffffffffffffffffffffffffffff1681526020018873ffffffffffffffffffffffffffffffffffffffff1681526020018c73ffffffffffffffffffffffffffffffffffffffff1681526020018b73ffffffffffffffffffffffffffffffffffffffff1681526020018a81526020018981526020018363ffffffff1681526020016000600181111561115b5761115a612a63565b5b600260008b73ffffffffffffffffffffffffffffffffffffffff1673ffffffffffffffffffffffffffffffffffffffff16815260200190815260200160002060000160019054906101000a900460ff1660018111156111bd576111bc612a63565b5b146111c95760006111cb565b845b62ffffff1681526020016000151581526020018660018111156111f1576111f0612a63565b5b815260200182600181111561120957611208612a63565b5b81525060066000600454815260200190815260200160002060008201518160000160006101000a81548173ffffffffffffffffffffffffffffffffffffffff021916908373ffffffffffffffffffffffffffffffffffffffff16021790555060208201518160010160006101000a81548173ffffffffffffffffffffffffffffffffffffffff021916908373ffffffffffffffffffffffffffffffffffffffff16021790555060408201518160020160006101000a81548173ffffffffffffffffffffffffffffffffffffffff021916908373ffffffffffffffffffffffffffffffffffffffff16021790555060608201518160030160006101000a81548173ffffffffffffffffffffffffffffffffffffffff021916908373ffffffffffffffffffffffffffffffffffffffff1602179055506080820151816004015560a0820151816005015560c08201518160060160006101000a81548163ffffffff021916908363ffffffff16021790555060e08201518160060160046101000a81548162ffffff021916908362ffffff1602179055506101008201518160060160076101000a81548160ff0219169083151502179055506101208201518160060160086101000a81548160ff021916908360018111156113ea576113e9612a63565b5b02179055506101408201518160060160096101000a81548160ff0219169083600181111561141b5761141a612a63565b5b02179055509050506004543373ffffffffffffffffffffffffffffffffffffffff167f88973ebc3bfa2242199be7d53ce471371d79dd9ff57af01cd70c77bd58c2a743898e8e8e8e8960066000600454815260200190815260200160002060060160049054906101000a900462ffffff168e8b6040516114a3999897969594939291906134f3565b60405180910390a3600460008154809291906114be90613580565b91905055506114cc3461227f565b505050506114d8612336565b50505050505050565b6000600360089054906101000a900467ffffffffffffffff1667ffffffffffffffff16905090565b6000600160009054906101000a900473ffffffffffffffffffffffffffffffffffffffff16905090565b61153b612239565b600560009054906101000a900473ffffffffffffffffffffffffffffffffffffffff1673ffffffffffffffffffffffffffffffffffffffff163373ffffffffffffffffffffffffffffffffffffffff16146115cb576040517f08c379a00000000000000000000000000000000000000000000000000000000081526004016115c29061363a565b60405180910390fd5b60006006600083815260200190815260200160002090508060060160079054906101000a900460ff1615611634576040517f08c379a000000000000000000000000000000000000000000000000000000000815260040161162b90613196565b60405180910390fd5b600060018081111561164957611648612a63565b5b8260060160099054906101000a900460ff16600181111561166d5761166c612a63565b5b036119615760008260010160009054906101000a900473ffffffffffffffffffffffffffffffffffffffff1690508260020160009054906101000a900473ffffffffffffffffffffffffffffffffffffffff1673ffffffffffffffffffffffffffffffffffffffff1663095ea7b38285600401546040518363ffffffff1660e01b81526004016116fe92919061365a565b6020604051808303816000875af115801561171d573d6000803e3d6000fd5b505050506040513d601f19601f8201168201806040525081019061174191906136af565b506000600267ffffffffffffffff81111561175f5761175e613222565b5b60405190808252806020026020018201604052801561178d5781602001602082028036833780820191505090505b5090508360020160009054906101000a900473ffffffffffffffffffffffffffffffffffffffff16816000815181106117c9576117c86136dc565b5b602002602001019073ffffffffffffffffffffffffffffffffffffffff16908173ffffffffffffffffffffffffffffffffffffffff16815250508360030160009054906101000a900473ffffffffffffffffffffffffffffffffffffffff168160018151811061183c5761183b6136dc565b5b602002602001019073ffffffffffffffffffffffffffffffffffffffff16908173ffffffffffffffffffffffffffffffffffffffff168152505060008273ffffffffffffffffffffffffffffffffffffffff166338ed173986600401548760050154858960000160009054906101000a900473ffffffffffffffffffffffffffffffffffffffff16426040518663ffffffff1660e01b81526004016118e59594939291906137ba565b6000604051808303816000875af1158015611904573d6000803e3d6000fd5b505050506040513d6000823e3d601f19601f8201168201806040525081019061192d919061393e565b9050806001825161193e9190613987565b8151811061194f5761194e6136dc565b5b60200260200101519350505050611c26565b6000600181111561197557611974612a63565b5b8260060160099054906101000a900460ff16600181111561199957611998612a63565b5b03611c255760008260010160009054906101000a900473ffffffffffffffffffffffffffffffffffffffff1690508260020160009054906101000a900473ffffffffffffffffffffffffffffffffffffffff1673ffffffffffffffffffffffffffffffffffffffff1663095ea7b38285600401546040518363ffffffff1660e01b8152600401611a2a92919061365a565b6020604051808303816000875af1158015611a49573d6000803e3d6000fd5b505050506040513d601f19601f82011682018060405250810190611a6d91906136af565b5060006040518061010001604052808560020160009054906101000a900473ffffffffffffffffffffffffffffffffffffffff1673ffffffffffffffffffffffffffffffffffffffff1681526020018560030160009054906101000a900473ffffffffffffffffffffffffffffffffffffffff1673ffffffffffffffffffffffffffffffffffffffff1681526020018560060160049054906101000a900462ffffff1662ffffff1681526020018560000160009054906101000a900473ffffffffffffffffffffffffffffffffffffffff1673ffffffffffffffffffffffffffffffffffffffff16815260200161025842611b6891906139bb565b81526020018560040154815260200185600501548152602001600073ffffffffffffffffffffffffffffffffffffffff16815250905060008273ffffffffffffffffffffffffffffffffffffffff1663414bf389836040518263ffffffff1660e01b8152600401611bd99190613aa0565b6020604051808303816000875af1158015611bf8573d6000803e3d6000fd5b505050506040513d601f19601f82011682018060405250810190611c1c9190613364565b90508093505050505b5b60018260060160076101000a81548160ff021916908315150217905550827f863b5571e6a1796b98827e87dd8c3005f47e4a32cbf1e168a2069819660c5a4f60405160405180910390a25050611c7a612336565b50565b6000600360009054906101000a900467ffffffffffffffff1667ffffffffffffffff16905090565b60045481565b611cb3611e6b565b6000611cbe82610c1b565b90506040518060400160405280600115158152602001826001811115611ce757611ce6612a63565b5b815250600260008473ffffffffffffffffffffffffffffffffffffffff1673ffffffffffffffffffffffffffffffffffffffff16815260200190815260200160002060008201518160000160006101000a81548160ff02191690831515021790555060208201518160000160016101000a81548160ff02191690836001811115611d7457611d73612a63565b5b02179055509050507fafa89fc7587af96e98b0e772270511472f5fb27ef564e0ac81acbbbfc29f0dd782604051611dab9190612f0a565b60405180910390a15050565b611dbf611e6b565b600073ffffffffffffffffffffffffffffffffffffffff168173ffffffffffffffffffffffffffffffffffffffff1603611e315760006040517f1e4fbdf7000000000000000000000000000000000000000000000000000000008152600401611e289190612f0a565b60405180910390fd5b611e3a816123bf565b50565b6000611e47611c7d565b82611e529190612fd1565b611e5a6114e1565b611e6491906139bb565b9050919050565b611e7361259e565b73ffffffffffffffffffffffffffffffffffffffff16611e91611509565b73ffffffffffffffffffffffffffffffffffffffff1614611ef057611eb461259e565b6040517f118cdaa7000000000000000000000000000000000000000000000000000000008152600401611ee79190612f0a565b60405180910390fd5b565b600080600085905060008173ffffffffffffffffffffffffffffffffffffffff1663c45a01556040518163ffffffff1660e01b8152600401602060405180830381865afa158015611f47573d6000803e3d6000fd5b505050506040513d601f19601f82011682018060405250810190611f6b9190613ad1565b9050600081905060008173ffffffffffffffffffffffffffffffffffffffff1663e6a4390589896040518363ffffffff1660e01b8152600401611faf929190613afe565b602060405180830381865afa158015611fcc573d6000803e3d6000fd5b505050506040513d601f19601f82011682018060405250810190611ff09190613ad1565b9050600073ffffffffffffffffffffffffffffffffffffffff168173ffffffffffffffffffffffffffffffffffffffff161461203757600160009550955050505050612043565b60008095509550505050505b935093915050565b600080600085905060008173ffffffffffffffffffffffffffffffffffffffff1663c45a01556040518163ffffffff1660e01b8152600401602060405180830381865afa1580156120a0573d6000803e3d6000fd5b505050506040513d601f19601f820116820180604052508101906120c49190613ad1565b90506000819050600060405180606001604052806101f462ffffff1662ffffff168152602001610bb862ffffff1662ffffff16815260200161271062ffffff1662ffffff16815250905060005b60038110156122245760008373ffffffffffffffffffffffffffffffffffffffff16631698ee828b8b86866003811061214d5761214c6136dc565b5b60200201516040518463ffffffff1660e01b815260040161217093929190613b27565b602060405180830381865afa15801561218d573d6000803e3d6000fd5b505050506040513d601f19601f820116820180604052508101906121b19190613ad1565b9050600073ffffffffffffffffffffffffffffffffffffffff168173ffffffffffffffffffffffffffffffffffffffff16146122105760018383600381106121fc576121fb6136dc565b5b602002015197509750505050505050612231565b50808061221c90613580565b915050612111565b5060008095509550505050505b935093915050565b600260005403612275576040517f3ee5aeb500000000000000000000000000000000000000000000000000000000815260040160405180910390fd5b6002600081905550565b6000612289611509565b73ffffffffffffffffffffffffffffffffffffffff16826040516122ac90613b8f565b60006040518083038185875af1925050503d80600081146122e9576040519150601f19603f3d011682016040523d82523d6000602084013e6122ee565b606091505b5050905080612332576040517f08c379a000000000000000000000000000000000000000000000000000000000815260040161232990613bf0565b60405180910390fd5b5050565b6001600081905550565b6123ba838473ffffffffffffffffffffffffffffffffffffffff1663a9059cbb858560405160240161237392919061365a565b604051602081830303815290604052915060e01b6020820180517bffffffffffffffffffffffffffffffffffffffffffffffffffffffff83818316178352505050506125a6565b505050565b6000600160009054906101000a900473ffffffffffffffffffffffffffffffffffffffff16905081600160006101000a81548173ffffffffffffffffffffffffffffffffffffffff021916908373ffffffffffffffffffffffffffffffffffffffff1602179055508173ffffffffffffffffffffffffffffffffffffffff168173ffffffffffffffffffffffffffffffffffffffff167f8be0079c531659141344cd1fd0a4f28419497f9722a3daafe3b4186f6b6457e060405160405180910390a35050565b600080600090505b6004845161249b9190613987565b8111612510576000816020860101519050837bffffffffffffffffffffffffffffffffffffffffffffffffffffffff1916817bffffffffffffffffffffffffffffffffffffffffffffffffffffffff1916036124fc57600192505050612516565b50808061250890613580565b91505061248d565b50600090505b92915050565b612598848573ffffffffffffffffffffffffffffffffffffffff166323b872dd86868660405160240161255193929190613c10565b604051602081830303815290604052915060e01b6020820180517bffffffffffffffffffffffffffffffffffffffffffffffffffffffff83818316178352505050506125a6565b50505050565b600033905090565b60006125d1828473ffffffffffffffffffffffffffffffffffffffff1661263d90919063ffffffff16565b905060008151141580156125f65750808060200190518101906125f491906136af565b155b1561263857826040517f5274afe700000000000000000000000000000000000000000000000000000000815260040161262f9190612f0a565b60405180910390fd5b505050565b606061264b83836000612653565b905092915050565b60608147101561269a57306040517fcd7860590000000000000000000000000000000000000000000000000000000081526004016126919190612f0a565b60405180910390fd5b6000808573ffffffffffffffffffffffffffffffffffffffff1684866040516126c39190613cad565b60006040518083038185875af1925050503d8060008114612700576040519150601f19603f3d011682016040523d82523d6000602084013e612705565b606091505b5091509150612715868383612720565b925050509392505050565b60608261273557612730826127af565b6127a7565b6000825114801561275d575060008473ffffffffffffffffffffffffffffffffffffffff163b145b1561279f57836040517f9996b3150000000000000000000000000000000000000000000000000000000081526004016127969190612f0a565b60405180910390fd5b8190506127a8565b5b9392505050565b6000815111156127c25780518082602001fd5b6040517f1425ea4200000000000000000000000000000000000000000000000000000000815260040160405180910390fd5b604051806101600160405280600073ffffffffffffffffffffffffffffffffffffffff168152602001600073ffffffffffffffffffffffffffffffffffffffff168152602001600073ffffffffffffffffffffffffffffffffffffffff168152602001600073ffffffffffffffffffffffffffffffffffffffff1681526020016000815260200160008152602001600063ffffffff168152602001600062ffffff168152602001600015158152602001600060018111156128b8576128b7612a63565b5b8152602001600060018111156128d1576128d0612a63565b5b81525090565b6000604051905090565b600080fd5b600080fd5b600067ffffffffffffffff82169050919050565b612908816128eb565b811461291357600080fd5b50565b600081359050612925816128ff565b92915050565b600060208284031215612941576129406128e1565b5b600061294f84828501612916565b91505092915050565b6000819050919050565b61296b81612958565b811461297657600080fd5b50565b60008135905061298881612962565b92915050565b6000602082840312156129a4576129a36128e1565b5b60006129b284828501612979565b91505092915050565b600073ffffffffffffffffffffffffffffffffffffffff82169050919050565b60006129e6826129bb565b9050919050565b6129f6816129db565b82525050565b612a0581612958565b82525050565b600063ffffffff82169050919050565b612a2481612a0b565b82525050565b600062ffffff82169050919050565b612a4281612a2a565b82525050565b60008115159050919050565b612a5d81612a48565b82525050565b7f4e487b7100000000000000000000000000000000000000000000000000000000600052602160045260246000fd5b60028110612aa357612aa2612a63565b5b50565b6000819050612ab482612a92565b919050565b6000612ac482612aa6565b9050919050565b612ad481612ab9565b82525050565b60028110612aeb57612aea612a63565b5b50565b6000819050612afc82612ada565b919050565b6000612b0c82612aee565b9050919050565b612b1c81612b01565b82525050565b61016082016000820151612b3960008501826129ed565b506020820151612b4c60208501826129ed565b506040820151612b5f60408501826129ed565b506060820151612b7260608501826129ed565b506080820151612b8560808501826129fc565b5060a0820151612b9860a08501826129fc565b5060c0820151612bab60c0850182612a1b565b5060e0820151612bbe60e0850182612a39565b50610100820151612bd3610100850182612a54565b50610120820151612be8610120850182612acb565b50610140820151612bfd610140850182612b13565b50505050565b600061016082019050612c196000830184612b22565b92915050565b612c28816129db565b8114612c3357600080fd5b50565b600081359050612c4581612c1f565b92915050565b60028110612c5857600080fd5b50565b600081359050612c6a81612c4b565b92915050565b60008060008060808587031215612c8a57612c896128e1565b5b6000612c9887828801612c36565b9450506020612ca987828801612c5b565b9350506040612cba87828801612c36565b9250506060612ccb87828801612c36565b91505092959194509250565b612ce081612a48565b82525050565b612cef81612a2a565b82525050565b6000604082019050612d0a6000830185612cd7565b612d176020830184612ce6565b9392505050565b612d2781612a0b565b8114612d3257600080fd5b50565b600081359050612d4481612d1e565b92915050565b60008060408385031215612d6157612d606128e1565b5b6000612d6f85828601612979565b9250506020612d8085828601612d35565b9150509250929050565b600060208284031215612da057612d9f6128e1565b5b6000612dae84828501612c36565b91505092915050565b612dc081612b01565b82525050565b6000604082019050612ddb6000830185612cd7565b612de86020830184612db7565b9392505050565b6000602082019050612e046000830184612db7565b92915050565b60028110612e1757600080fd5b50565b600081359050612e2981612e0a565b92915050565b600080600080600080600060e0888a031215612e4e57612e4d6128e1565b5b6000612e5c8a828b01612c36565b9750506020612e6d8a828b01612c36565b9650506040612e7e8a828b01612979565b9550506060612e8f8a828b01612979565b9450506080612ea08a828b01612c36565b93505060a0612eb18a828b01612d35565b92505060c0612ec28a828b01612e1a565b91505092959891949750929550565b612eda81612958565b82525050565b6000602082019050612ef56000830184612ed1565b92915050565b612f04816129db565b82525050565b6000602082019050612f1f6000830184612efb565b92915050565b600082825260208201905092915050565b7f4e6f742074686520706f736974696f6e206f776e657200000000000000000000600082015250565b6000612f6c601683612f25565b9150612f7782612f36565b602082019050919050565b60006020820190508181036000830152612f9b81612f5f565b9050919050565b7f4e487b7100000000000000000000000000000000000000000000000000000000600052601160045260246000fd5b6000612fdc82612958565b9150612fe783612958565b9250828202612ff581612958565b9150828204841483151761300c5761300b612fa2565b5b5092915050565b7f496e73756666696369656e742066656500000000000000000000000000000000600082015250565b6000613049601083612f25565b915061305482613013565b602082019050919050565b600060208201905081810360008301526130788161303c565b9050919050565b600061308a82612a0b565b915061309583612a0b565b92508282026130a381612a0b565b91508082146130b5576130b4612fa2565b5b5092915050565b60006130c782612a0b565b91506130d283612a0b565b9250828201905063ffffffff8111156130ee576130ed612fa2565b5b92915050565b6000819050919050565b600061311961311461310f84612a0b565b6130f4565b612958565b9050919050565b613129816130fe565b82525050565b60006020820190506131446000830184613120565b92915050565b7f506f736974696f6e20616c726561647920657865637574656400000000000000600082015250565b6000613180601983612f25565b915061318b8261314a565b602082019050919050565b600060208201905081810360008301526131af81613173565b9050919050565b7f41646472657373206973206e6f74206120636f6e747261637421000000000000600082015250565b60006131ec601a83612f25565b91506131f7826131b6565b602082019050919050565b6000602082019050818103600083015261321b816131df565b9050919050565b7f4e487b7100000000000000000000000000000000000000000000000000000000600052604160045260246000fd5b7f546865206465782061646472657373206973206e6f7420556e6973776170563360008201527f20666f726b206e6f7220556e6973776170563220666f726b0000000000000000602082015250565b60006132ad603883612f25565b91506132b882613251565b604082019050919050565b600060208201905081810360008301526132dc816132a0565b9050919050565b7f537761702070726963652063616e6e6f74206265207a65726f00000000000000600082015250565b6000613319601983612f25565b9150613324826132e3565b602082019050919050565b600060208201905081810360008301526133488161330c565b9050919050565b60008151905061335e81612962565b92915050565b60006020828403121561337a576133796128e1565b5b60006133888482850161334f565b91505092915050565b7f496e73756666696369656e7420746f6b656e2062616c616e6365000000000000600082015250565b60006133c7601a83612f25565b91506133d282613391565b602082019050919050565b600060208201905081810360008301526133f6816133ba565b9050919050565b7f44657820726f75746572206e6f742077686974656c6973746564000000000000600082015250565b6000613433601a83612f25565b915061343e826133fd565b602082019050919050565b6000602082019050818103600083015261346281613426565b9050919050565b7f54686520706f6f6c20646f65736e277420657869737400000000000000000000600082015250565b600061349f601683612f25565b91506134aa82613469565b602082019050919050565b600060208201905081810360008301526134ce81613492565b9050919050565b6134de81612a0b565b82525050565b6134ed81612ab9565b82525050565b600061012082019050613509600083018c612efb565b613516602083018b612efb565b613523604083018a612efb565b6135306060830189612ed1565b61353d6080830188612ed1565b61354a60a08301876134d5565b61355760c0830186612ce6565b61356460e08301856134e4565b613572610100830184612db7565b9a9950505050505050505050565b600061358b82612958565b91507fffffffffffffffffffffffffffffffffffffffffffffffffffffffffffffffff82036135bd576135bc612fa2565b5b600182019050919050565b7f4f6e6c79207472616465206578656375746f722063616e20657865637574652060008201527f7377617000000000000000000000000000000000000000000000000000000000602082015250565b6000613624602483612f25565b915061362f826135c8565b604082019050919050565b6000602082019050818103600083015261365381613617565b9050919050565b600060408201905061366f6000830185612efb565b61367c6020830184612ed1565b9392505050565b61368c81612a48565b811461369757600080fd5b50565b6000815190506136a981613683565b92915050565b6000602082840312156136c5576136c46128e1565b5b60006136d38482850161369a565b91505092915050565b7f4e487b7100000000000000000000000000000000000000000000000000000000600052603260045260246000fd5b600081519050919050565b600082825260208201905092915050565b6000819050602082019050919050565b600061374383836129ed565b60208301905092915050565b6000602082019050919050565b60006137678261370b565b6137718185613716565b935061377c83613727565b8060005b838110156137ad5781516137948882613737565b975061379f8361374f565b925050600181019050613780565b5085935050505092915050565b600060a0820190506137cf6000830188612ed1565b6137dc6020830187612ed1565b81810360408301526137ee818661375c565b90506137fd6060830185612efb565b61380a6080830184612ed1565b9695505050505050565b600080fd5b6000601f19601f8301169050919050565b61383382613819565b810181811067ffffffffffffffff8211171561385257613851613222565b5b80604052505050565b60006138656128d7565b9050613871828261382a565b919050565b600067ffffffffffffffff82111561389157613890613222565b5b602082029050602081019050919050565b600080fd5b60006138ba6138b584613876565b61385b565b905080838252602082019050602084028301858111156138dd576138dc6138a2565b5b835b8181101561390657806138f2888261334f565b8452602084019350506020810190506138df565b5050509392505050565b600082601f83011261392557613924613814565b5b81516139358482602086016138a7565b91505092915050565b600060208284031215613954576139536128e1565b5b600082015167ffffffffffffffff811115613972576139716128e6565b5b61397e84828501613910565b91505092915050565b600061399282612958565b915061399d83612958565b92508282039050818111156139b5576139b4612fa2565b5b92915050565b60006139c682612958565b91506139d183612958565b92508282019050808211156139e9576139e8612fa2565b5b92915050565b6139f8816129bb565b82525050565b61010082016000820151613a1560008501826129ed565b506020820151613a2860208501826129ed565b506040820151613a3b6040850182612a39565b506060820151613a4e60608501826129ed565b506080820151613a6160808501826129fc565b5060a0820151613a7460a08501826129fc565b5060c0820151613a8760c08501826129fc565b5060e0820151613a9a60e08501826139ef565b50505050565b600061010082019050613ab660008301846139fe565b92915050565b600081519050613acb81612c1f565b92915050565b600060208284031215613ae757613ae66128e1565b5b6000613af584828501613abc565b91505092915050565b6000604082019050613b136000830185612efb565b613b206020830184612efb565b9392505050565b6000606082019050613b3c6000830186612efb565b613b496020830185612efb565b613b566040830184612ce6565b949350505050565b600081905092915050565b50565b6000613b79600083613b5e565b9150613b8482613b69565b600082019050919050565b6000613b9a82613b6c565b9150819050919050565b7f466565207472616e73666572206661696c656400000000000000000000000000600082015250565b6000613bda601383612f25565b9150613be582613ba4565b602082019050919050565b60006020820190508181036000830152613c0981613bcd565b9050919050565b6000606082019050613c256000830186612efb565b613c326020830185612efb565b613c3f6040830184612ed1565b949350505050565b600081519050919050565b60005b83811015613c70578082015181840152602081019050613c55565b60008484015250505050565b6000613c8782613c47565b613c918185613b5e565b9350613ca1818560208601613c52565b80840191505092915050565b6000613cb98284613c7c565b91508190509291505056fea2646970667358221220a50a0bfbde775139a3124fc8e5edc5f275acd7de0db44b11201cf80af3b12f0e64736f6c63430008140033",
  "linkReferences": {},
  "deployedLinkReferences": {}
}