{
  "_format": "hh-sol-artifact-1",
  "contractName": "PositionManager",
  "sourceName": "contracts/PositionManager.sol",
  "abi": [
    {
      "inputs": [
        {
          "internalType": "address",
          "name": "tradeExecutor",
          "type": "address"
        },
        {
          "internalType": "uint64",
          "name": "dailyPositionFee",
          "type": "uint64"
        },
        {
          "internalType": "uint64",
          "name": "executionFee",
          "type": "uint64"
        }
      ],
      "stateMutability": "nonpayable",
      "type": "constructor"
    },
    {
      "inputs": [
        {
          "internalType": "address",
          "name": "target",
          "type": "address"
        }
      ],
      "name": "AddressEmptyCode",
      "type": "error"
    },
    {
      "inputs": [
        {
          "internalType": "address",
          "name": "account",
          "type": "address"
        }
      ],
      "name": "AddressInsufficientBalance",
      "type": "error"
    },
    {
      "inputs": [],
      "name": "FailedInnerCall",
      "type": "error"
    },
    {
      "inputs": [
        {
          "internalType": "address",
          "name": "owner",
          "type": "address"
        }
      ],
      "name": "OwnableInvalidOwner",
      "type": "error"
    },
    {
      "inputs": [
        {
          "internalType": "address",
          "name": "account",
          "type": "address"
        }
      ],
      "name": "OwnableUnauthorizedAccount",
      "type": "error"
    },
    {
      "inputs": [],
      "name": "ReentrancyGuardReentrantCall",
      "type": "error"
    },
    {
      "inputs": [
        {
          "internalType": "address",
          "name": "token",
          "type": "address"
        }
      ],
      "name": "SafeERC20FailedOperation",
      "type": "error"
    },
    {
      "anonymous": false,
      "inputs": [
        {
          "indexed": false,
          "internalType": "address",
          "name": "dexRouter",
          "type": "address"
        }
      ],
      "name": "DexRouterWhitelisted",
      "type": "event"
    },
    {
      "anonymous": false,
      "inputs": [
        {
          "indexed": false,
          "internalType": "bytes",
          "name": "data",
          "type": "bytes"
        }
      ],
      "name": "LogBytes",
      "type": "event"
    },
    {
      "anonymous": false,
      "inputs": [
        {
          "indexed": true,
          "internalType": "address",
          "name": "previousOwner",
          "type": "address"
        },
        {
          "indexed": true,
          "internalType": "address",
          "name": "newOwner",
          "type": "address"
        }
      ],
      "name": "OwnershipTransferred",
      "type": "event"
    },
    {
      "anonymous": false,
      "inputs": [
        {
          "indexed": true,
          "internalType": "address",
          "name": "wallet",
          "type": "address"
        },
        {
          "indexed": false,
          "internalType": "uint256",
          "name": "positionId",
          "type": "uint256"
        }
      ],
      "name": "PositionCreated",
      "type": "event"
    },
    {
      "anonymous": false,
      "inputs": [
        {
          "indexed": false,
          "internalType": "uint256",
          "name": "positionId",
          "type": "uint256"
        }
      ],
      "name": "PositionExecuted",
      "type": "event"
    },
    {
      "anonymous": false,
      "inputs": [
        {
          "indexed": false,
          "internalType": "uint256",
          "name": "positionId",
          "type": "uint256"
        },
        {
          "indexed": false,
          "internalType": "uint256",
          "name": "duration",
          "type": "uint256"
        }
      ],
      "name": "PositionProlonged",
      "type": "event"
    },
    {
      "anonymous": false,
      "inputs": [
        {
          "indexed": true,
          "internalType": "address",
          "name": "wallet",
          "type": "address"
        },
        {
          "indexed": false,
          "internalType": "uint256",
          "name": "positionId",
          "type": "uint256"
        }
      ],
      "name": "PositionWithdrawn",
      "type": "event"
    },
    {
      "inputs": [
        {
          "internalType": "uint64",
          "name": "newFee",
          "type": "uint64"
        }
      ],
      "name": "changeDailyPositionFee",
      "outputs": [],
      "stateMutability": "nonpayable",
      "type": "function"
    },
    {
      "inputs": [
        {
          "internalType": "uint64",
          "name": "newFee",
          "type": "uint64"
        }
      ],
      "name": "changeExecutionFee",
      "outputs": [],
      "stateMutability": "nonpayable",
      "type": "function"
    },
    {
      "inputs": [
        {
          "internalType": "address",
          "name": "tokenIn",
          "type": "address"
        },
        {
          "internalType": "address",
          "name": "tokenOut",
          "type": "address"
        },
        {
          "internalType": "uint256",
          "name": "quantity",
          "type": "uint256"
        },
        {
          "internalType": "uint256",
          "name": "swapPrice",
          "type": "uint256"
        },
        {
          "internalType": "address",
          "name": "dexRouter",
          "type": "address"
        },
        {
          "internalType": "uint32",
          "name": "duration",
          "type": "uint32"
        }
      ],
      "name": "createPosition",
      "outputs": [],
      "stateMutability": "payable",
      "type": "function"
    },
    {
      "inputs": [
        {
          "internalType": "address",
          "name": "dexRouter",
          "type": "address"
        },
        {
          "internalType": "enum DexChecker.UniswapABI",
          "name": "dexType",
          "type": "uint8"
        },
        {
          "internalType": "address",
          "name": "tokenIn",
          "type": "address"
        },
        {
          "internalType": "address",
          "name": "tokenOut",
          "type": "address"
        }
      ],
      "name": "doesPoolExist",
      "outputs": [
        {
          "internalType": "bool",
          "name": "",
          "type": "bool"
        },
        {
          "internalType": "uint24",
          "name": "",
          "type": "uint24"
        }
      ],
      "stateMutability": "view",
      "type": "function"
    },
    {
      "inputs": [
        {
          "internalType": "uint256",
          "name": "positionId",
          "type": "uint256"
        }
      ],
      "name": "executeSwap",
      "outputs": [],
      "stateMutability": "nonpayable",
      "type": "function"
    },
    {
      "inputs": [],
      "name": "getDailyPositionFee",
      "outputs": [
        {
          "internalType": "uint256",
          "name": "",
          "type": "uint256"
        }
      ],
      "stateMutability": "view",
      "type": "function"
    },
    {
      "inputs": [],
      "name": "getExecutionFee",
      "outputs": [
        {
          "internalType": "uint256",
          "name": "",
          "type": "uint256"
        }
      ],
      "stateMutability": "view",
      "type": "function"
    },
    {
      "inputs": [
        {
          "internalType": "uint256",
          "name": "duration",
          "type": "uint256"
        }
      ],
      "name": "getExpectedFee",
      "outputs": [
        {
          "internalType": "uint256",
          "name": "",
          "type": "uint256"
        }
      ],
      "stateMutability": "view",
      "type": "function"
    },
    {
      "inputs": [
        {
          "internalType": "address",
          "name": "dex",
          "type": "address"
        }
      ],
      "name": "isValidUniswapFork",
      "outputs": [
        {
          "internalType": "enum DexChecker.UniswapABI",
          "name": "",
          "type": "uint8"
        }
      ],
      "stateMutability": "view",
      "type": "function"
    },
    {
      "inputs": [],
      "name": "owner",
      "outputs": [
        {
          "internalType": "address",
          "name": "",
          "type": "address"
        }
      ],
      "stateMutability": "view",
      "type": "function"
    },
    {
      "inputs": [
        {
          "internalType": "uint256",
          "name": "positionId",
          "type": "uint256"
        },
        {
          "internalType": "uint32",
          "name": "duration",
          "type": "uint32"
        }
      ],
      "name": "prolongPosition",
      "outputs": [],
      "stateMutability": "payable",
      "type": "function"
    },
    {
      "inputs": [],
      "name": "renounceOwnership",
      "outputs": [],
      "stateMutability": "nonpayable",
      "type": "function"
    },
    {
      "inputs": [],
      "name": "s_positionId",
      "outputs": [
        {
          "internalType": "uint256",
          "name": "",
          "type": "uint256"
        }
      ],
      "stateMutability": "view",
      "type": "function"
    },
    {
      "inputs": [
        {
          "internalType": "uint256",
          "name": "positionId",
          "type": "uint256"
        }
      ],
      "name": "seePositionAttributes",
      "outputs": [
        {
          "components": [
            {
              "internalType": "address",
              "name": "wallet",
              "type": "address"
            },
            {
              "internalType": "address",
              "name": "dexRouter",
              "type": "address"
            },
            {
              "internalType": "address",
              "name": "tokenIn",
              "type": "address"
            },
            {
              "internalType": "address",
              "name": "tokenOut",
              "type": "address"
            },
            {
              "internalType": "uint256",
              "name": "quantity",
              "type": "uint256"
            },
            {
              "internalType": "uint256",
              "name": "executionValue",
              "type": "uint256"
            },
            {
              "internalType": "uint32",
              "name": "endTimestamp",
              "type": "uint32"
            },
            {
              "internalType": "uint24",
              "name": "fee",
              "type": "uint24"
            },
            {
              "internalType": "bool",
              "name": "executed",
              "type": "bool"
            },
            {
              "internalType": "enum DexChecker.UniswapABI",
              "name": "forkABI",
              "type": "uint8"
            }
          ],
          "internalType": "struct PositionManager.Position",
          "name": "",
          "type": "tuple"
        }
      ],
      "stateMutability": "view",
      "type": "function"
    },
    {
      "inputs": [
        {
          "internalType": "address",
          "name": "newTradeExecutor",
          "type": "address"
        }
      ],
      "name": "setNewTradeExecutor",
      "outputs": [],
      "stateMutability": "nonpayable",
      "type": "function"
    },
    {
      "inputs": [
        {
          "internalType": "address",
          "name": "newOwner",
          "type": "address"
        }
      ],
      "name": "transferOwnership",
      "outputs": [],
      "stateMutability": "nonpayable",
      "type": "function"
    },
    {
      "inputs": [
        {
          "internalType": "address",
          "name": "dexRouter",
          "type": "address"
        }
      ],
      "name": "whitelistDexRouter",
      "outputs": [],
      "stateMutability": "nonpayable",
      "type": "function"
    },
    {
      "inputs": [
        {
          "internalType": "address",
          "name": "",
          "type": "address"
        }
      ],
      "name": "whitelistedDexes",
      "outputs": [
        {
          "internalType": "bool",
          "name": "isWhitelisted",
          "type": "bool"
        },
        {
          "internalType": "enum DexChecker.UniswapABI",
          "name": "dexType",
          "type": "uint8"
        }
      ],
      "stateMutability": "view",
      "type": "function"
    },
    {
      "inputs": [
        {
          "internalType": "uint256",
          "name": "positionId",
          "type": "uint256"
        }
      ],
      "name": "withdrawPosition",
      "outputs": [],
      "stateMutability": "nonpayable",
      "type": "function"
    }
  ],
  "bytecode": "0x60806040523480156200001157600080fd5b5060405162003fed38038062003fed8339818101604052810190620000379190620002e0565b81818480806001600081905550600073ffffffffffffffffffffffffffffffffffffffff168173ffffffffffffffffffffffffffffffffffffffff1603620000b95760006040517f1e4fbdf7000000000000000000000000000000000000000000000000000000008152600401620000b091906200034d565b60405180910390fd5b620000ca816200016b60201b60201c565b505082600360006101000a81548167ffffffffffffffff021916908367ffffffffffffffff16021790555081600360086101000a81548167ffffffffffffffff021916908367ffffffffffffffff16021790555050505082600560006101000a81548173ffffffffffffffffffffffffffffffffffffffff021916908373ffffffffffffffffffffffffffffffffffffffff1602179055505050506200036a565b6000600160009054906101000a900473ffffffffffffffffffffffffffffffffffffffff16905081600160006101000a81548173ffffffffffffffffffffffffffffffffffffffff021916908373ffffffffffffffffffffffffffffffffffffffff1602179055508173ffffffffffffffffffffffffffffffffffffffff168173ffffffffffffffffffffffffffffffffffffffff167f8be0079c531659141344cd1fd0a4f28419497f9722a3daafe3b4186f6b6457e060405160405180910390a35050565b600080fd5b600073ffffffffffffffffffffffffffffffffffffffff82169050919050565b6000620002638262000236565b9050919050565b620002758162000256565b81146200028157600080fd5b50565b60008151905062000295816200026a565b92915050565b600067ffffffffffffffff82169050919050565b620002ba816200029b565b8114620002c657600080fd5b50565b600081519050620002da81620002af565b92915050565b600080600060608486031215620002fc57620002fb62000231565b5b60006200030c8682870162000284565b93505060206200031f86828701620002c9565b92505060406200033286828701620002c9565b9150509250925092565b620003478162000256565b82525050565b60006020820190506200036460008301846200033c565b92915050565b613c73806200037a6000396000f3fe6080604052600436106101145760003560e01c8063715018a6116100a0578063cc506f3511610064578063cc506f3514610381578063ea63cd39146103ac578063efb7c45f146103d7578063f2fde38b14610400578063f3aaafbf1461042957610114565b8063715018a6146102ae5780637c310325146102c5578063897293a4146103025780638da5cb5b1461032d578063a9ab232b1461035857610114565b806334af43be116100e757806334af43be146101d95780633f582c87146102025780634525eeb21461021e578063525c12ea1461025c5780636791ccf11461028557610114565b80630b089abd146101195780630ec1f8bf146101355780631353b5071461015e5780631c135c4e1461019b575b600080fd5b610133600480360381019061012e91906129d6565b610466565b005b34801561014157600080fd5b5061015c60048036038101906101579190612aa3565b610b38565b005b34801561016a57600080fd5b5061018560048036038101906101809190612ad0565b610b6c565b6040516101929190612ca6565b60405180910390f35b3480156101a757600080fd5b506101c260048036038101906101bd9190612ce7565b610ea1565b6040516101d0929190612d6c565b60405180910390f35b3480156101e557600080fd5b5061020060048036038101906101fb9190612aa3565b610f34565b005b61021c60048036038101906102179190612d95565b610f68565b005b34801561022a57600080fd5b5061024560048036038101906102409190612dd5565b611126565b604051610253929190612e11565b60405180910390f35b34801561026857600080fd5b50610283600480360381019061027e9190612ad0565b611164565b005b34801561029157600080fd5b506102ac60048036038101906102a79190612dd5565b611345565b005b3480156102ba57600080fd5b506102c3611391565b005b3480156102d157600080fd5b506102ec60048036038101906102e79190612dd5565b6113a5565b6040516102f99190612e3a565b60405180910390f35b34801561030e57600080fd5b5061031761150b565b6040516103249190612e64565b60405180910390f35b34801561033957600080fd5b50610342611533565b60405161034f9190612e8e565b60405180910390f35b34801561036457600080fd5b5061037f600480360381019061037a9190612ad0565b61155d565b005b34801561038d57600080fd5b50610396611cb1565b6040516103a39190612e64565b60405180910390f35b3480156103b857600080fd5b506103c1611cd9565b6040516103ce9190612e64565b60405180910390f35b3480156103e357600080fd5b506103fe60048036038101906103f99190612dd5565b611cdf565b005b34801561040c57600080fd5b5061042760048036038101906104229190612dd5565b611deb565b005b34801561043557600080fd5b50610450600480360381019061044b9190612ad0565b611e71565b60405161045d9190612e64565b60405180910390f35b61046e611e9f565b8063ffffffff1661047d611cb1565b6104879190612ed8565b3410156104c9576040517f08c379a00000000000000000000000000000000000000000000000000000000081526004016104c090612f77565b60405180910390fd5b6000831161050c576040517f08c379a000000000000000000000000000000000000000000000000000000000815260040161050390612fe3565b60405180910390fd5b838673ffffffffffffffffffffffffffffffffffffffff166370a08231336040518263ffffffff1660e01b81526004016105469190612e8e565b602060405180830381865afa158015610563573d6000803e3d6000fd5b505050506040513d601f19601f820116820180604052508101906105879190613018565b10156105c8576040517f08c379a00000000000000000000000000000000000000000000000000000000081526004016105bf90613091565b60405180910390fd5b600260008373ffffffffffffffffffffffffffffffffffffffff1673ffffffffffffffffffffffffffffffffffffffff16815260200190815260200160002060000160009054906101000a900460ff16610657576040517f08c379a000000000000000000000000000000000000000000000000000000000815260040161064e906130fd565b60405180910390fd5b6000806106b584600260008773ffffffffffffffffffffffffffffffffffffffff1673ffffffffffffffffffffffffffffffffffffffff16815260200190815260200160002060000160019054906101000a900460ff168a8a610ea1565b91509150816106f9576040517f08c379a00000000000000000000000000000000000000000000000000000000081526004016106f090613169565b60405180910390fd5b6107263330888b73ffffffffffffffffffffffffffffffffffffffff16611ee5909392919063ffffffff16565b6040518061014001604052803373ffffffffffffffffffffffffffffffffffffffff1681526020018573ffffffffffffffffffffffffffffffffffffffff1681526020018973ffffffffffffffffffffffffffffffffffffffff1681526020018873ffffffffffffffffffffffffffffffffffffffff16815260200187815260200186815260200184620151806107bd9190613189565b426107c891906131c6565b63ffffffff168152602001600060018111156107e7576107e6612b63565b5b600260008873ffffffffffffffffffffffffffffffffffffffff1673ffffffffffffffffffffffffffffffffffffffff16815260200190815260200160002060000160019054906101000a900460ff16600181111561084957610848612b63565b5b14610855576000610857565b825b62ffffff168152602001600015158152602001600260008773ffffffffffffffffffffffffffffffffffffffff1673ffffffffffffffffffffffffffffffffffffffff16815260200190815260200160002060000160019054906101000a900460ff1660018111156108cc576108cb612b63565b5b81525060066000600454815260200190815260200160002060008201518160000160006101000a81548173ffffffffffffffffffffffffffffffffffffffff021916908373ffffffffffffffffffffffffffffffffffffffff16021790555060208201518160010160006101000a81548173ffffffffffffffffffffffffffffffffffffffff021916908373ffffffffffffffffffffffffffffffffffffffff16021790555060408201518160020160006101000a81548173ffffffffffffffffffffffffffffffffffffffff021916908373ffffffffffffffffffffffffffffffffffffffff16021790555060608201518160030160006101000a81548173ffffffffffffffffffffffffffffffffffffffff021916908373ffffffffffffffffffffffffffffffffffffffff1602179055506080820151816004015560a0820151816005015560c08201518160060160006101000a81548163ffffffff021916908363ffffffff16021790555060e08201518160060160046101000a81548162ffffff021916908362ffffff1602179055506101008201518160060160076101000a81548160ff0219169083151502179055506101208201518160060160086101000a81548160ff02191690836001811115610aad57610aac612b63565b5b02179055509050503373ffffffffffffffffffffffffffffffffffffffff167f77b029cdc31eeab36803cd47dc813d0ffb6332baea128b6cd6a2abb332879e15600454604051610afd9190612e64565b60405180910390a260046000815480929190610b18906131fe565b9190505550610b2634611f67565b5050610b3061201e565b505050505050565b610b40612028565b80600360086101000a81548167ffffffffffffffff021916908367ffffffffffffffff16021790555050565b610b74612828565b6006600083815260200190815260200160002060000160009054906101000a900473ffffffffffffffffffffffffffffffffffffffff1673ffffffffffffffffffffffffffffffffffffffff163373ffffffffffffffffffffffffffffffffffffffff161480610c315750600560009054906101000a900473ffffffffffffffffffffffffffffffffffffffff1673ffffffffffffffffffffffffffffffffffffffff163373ffffffffffffffffffffffffffffffffffffffff16145b610c70576040517f08c379a0000000000000000000000000000000000000000000000000000000008152600401610c67906132b8565b60405180910390fd5b60066000838152602001908152602001600020604051806101400160405290816000820160009054906101000a900473ffffffffffffffffffffffffffffffffffffffff1673ffffffffffffffffffffffffffffffffffffffff1673ffffffffffffffffffffffffffffffffffffffff1681526020016001820160009054906101000a900473ffffffffffffffffffffffffffffffffffffffff1673ffffffffffffffffffffffffffffffffffffffff1673ffffffffffffffffffffffffffffffffffffffff1681526020016002820160009054906101000a900473ffffffffffffffffffffffffffffffffffffffff1673ffffffffffffffffffffffffffffffffffffffff1673ffffffffffffffffffffffffffffffffffffffff1681526020016003820160009054906101000a900473ffffffffffffffffffffffffffffffffffffffff1673ffffffffffffffffffffffffffffffffffffffff1673ffffffffffffffffffffffffffffffffffffffff16815260200160048201548152602001600582015481526020016006820160009054906101000a900463ffffffff1663ffffffff1663ffffffff1681526020016006820160049054906101000a900462ffffff1662ffffff1662ffffff1681526020016006820160079054906101000a900460ff161515151581526020016006820160089054906101000a900460ff166001811115610e8457610e83612b63565b5b6001811115610e9657610e95612b63565b5b815250509050919050565b600080600180811115610eb757610eb6612b63565b5b856001811115610eca57610ec9612b63565b5b03610ee357610eda8685856120af565b91509150610f2b565b60006001811115610ef757610ef6612b63565b5b856001811115610f0a57610f09612b63565b5b03610f2357610f1a868585612208565b91509150610f2b565b600080915091505b94509492505050565b610f3c612028565b80600360006101000a81548167ffffffffffffffff021916908367ffffffffffffffff16021790555050565b813373ffffffffffffffffffffffffffffffffffffffff166006600083815260200190815260200160002060000160009054906101000a900473ffffffffffffffffffffffffffffffffffffffff1673ffffffffffffffffffffffffffffffffffffffff161461100d576040517f08c379a000000000000000000000000000000000000000000000000000000000815260040161100490613324565b60405180910390fd5b611015611e9f565b60006006600085815260200190815260200160002090508263ffffffff1661103b611cb1565b6110459190612ed8565b341015611087576040517f08c379a000000000000000000000000000000000000000000000000000000000815260040161107e90612f77565b60405180910390fd5b82620151806110969190613189565b8160060160008282829054906101000a900463ffffffff166110b891906131c6565b92506101000a81548163ffffffff021916908363ffffffff1602179055506110df34611f67565b7fc9a4971d552237825a5c93918e234dbd2d48393118ba17e030e5c2c2b48acca1848460405161111092919061337f565b60405180910390a15061112161201e565b505050565b60026020528060005260406000206000915090508060000160009054906101000a900460ff16908060000160019054906101000a900460ff16905082565b803373ffffffffffffffffffffffffffffffffffffffff166006600083815260200190815260200160002060000160009054906101000a900473ffffffffffffffffffffffffffffffffffffffff1673ffffffffffffffffffffffffffffffffffffffff1614611209576040517f08c379a000000000000000000000000000000000000000000000000000000000815260040161120090613324565b60405180910390fd5b611211611e9f565b60006006600084815260200190815260200160002090508060060160079054906101000a900460ff161561127a576040517f08c379a0000000000000000000000000000000000000000000000000000000008152600401611271906133f4565b60405180910390fd5b60018160060160076101000a81548160ff0219169083151502179055506112ea3382600401548360020160009054906101000a900473ffffffffffffffffffffffffffffffffffffffff1673ffffffffffffffffffffffffffffffffffffffff166123f69092919063ffffffff16565b3373ffffffffffffffffffffffffffffffffffffffff167fc73cb9445bd4c612f5ab737521a91a974dc06cbb201b699d3a7958f4660c2cb7846040516113309190612e64565b60405180910390a25061134161201e565b5050565b61134d612028565b80600560006101000a81548173ffffffffffffffffffffffffffffffffffffffff021916908373ffffffffffffffffffffffffffffffffffffffff16021790555050565b611399612028565b6113a36000612475565b565b600080823b9050600081036113ef576040517f08c379a00000000000000000000000000000000000000000000000000000000081526004016113e690613460565b60405180910390fd5b60008167ffffffffffffffff81111561140b5761140a613480565b5b6040519080825280601f01601f19166020018201604052801561143d5781602001600182028036833780820191505090505b50905081600060208301863c6000611475827f414bf389314e949f7d65d58dd6b67d69018994750e6fdc230761f1010efe499361253b565b905060006114a3837f38ed1739ee07daf49933f1800d1a9bc8d39a6876ea11e643f9c4c39c66df0ee861253b565b905081156114b8576000945050505050611506565b80156114cb576001945050505050611506565b6040517f08c379a00000000000000000000000000000000000000000000000000000000081526004016114fd90613521565b60405180910390fd5b919050565b6000600360089054906101000a900467ffffffffffffffff1667ffffffffffffffff16905090565b6000600160009054906101000a900473ffffffffffffffffffffffffffffffffffffffff16905090565b611565611e9f565b600560009054906101000a900473ffffffffffffffffffffffffffffffffffffffff1673ffffffffffffffffffffffffffffffffffffffff163373ffffffffffffffffffffffffffffffffffffffff16146115f5576040517f08c379a00000000000000000000000000000000000000000000000000000000081526004016115ec906135b3565b60405180910390fd5b60006006600083815260200190815260200160002090508060060160079054906101000a900460ff161561165e576040517f08c379a0000000000000000000000000000000000000000000000000000000008152600401611655906133f4565b60405180910390fd5b600060018081111561167357611672612b63565b5b8260060160089054906101000a900460ff16600181111561169757611696612b63565b5b0361198b5760008260010160009054906101000a900473ffffffffffffffffffffffffffffffffffffffff1690508260020160009054906101000a900473ffffffffffffffffffffffffffffffffffffffff1673ffffffffffffffffffffffffffffffffffffffff1663095ea7b38285600401546040518363ffffffff1660e01b81526004016117289291906135d3565b6020604051808303816000875af1158015611747573d6000803e3d6000fd5b505050506040513d601f19601f8201168201806040525081019061176b9190613628565b506000600267ffffffffffffffff81111561178957611788613480565b5b6040519080825280602002602001820160405280156117b75781602001602082028036833780820191505090505b5090508360020160009054906101000a900473ffffffffffffffffffffffffffffffffffffffff16816000815181106117f3576117f2613655565b5b602002602001019073ffffffffffffffffffffffffffffffffffffffff16908173ffffffffffffffffffffffffffffffffffffffff16815250508360030160009054906101000a900473ffffffffffffffffffffffffffffffffffffffff168160018151811061186657611865613655565b5b602002602001019073ffffffffffffffffffffffffffffffffffffffff16908173ffffffffffffffffffffffffffffffffffffffff168152505060008273ffffffffffffffffffffffffffffffffffffffff166338ed173986600401548760050154858960000160009054906101000a900473ffffffffffffffffffffffffffffffffffffffff16426040518663ffffffff1660e01b815260040161190f959493929190613733565b6000604051808303816000875af115801561192e573d6000803e3d6000fd5b505050506040513d6000823e3d601f19601f8201168201806040525081019061195791906138b7565b905080600182516119689190613900565b8151811061197957611978613655565b5b60200260200101519350505050611c50565b6000600181111561199f5761199e612b63565b5b8260060160089054906101000a900460ff1660018111156119c3576119c2612b63565b5b03611c4f5760008260010160009054906101000a900473ffffffffffffffffffffffffffffffffffffffff1690508260020160009054906101000a900473ffffffffffffffffffffffffffffffffffffffff1673ffffffffffffffffffffffffffffffffffffffff1663095ea7b38285600401546040518363ffffffff1660e01b8152600401611a549291906135d3565b6020604051808303816000875af1158015611a73573d6000803e3d6000fd5b505050506040513d601f19601f82011682018060405250810190611a979190613628565b5060006040518061010001604052808560020160009054906101000a900473ffffffffffffffffffffffffffffffffffffffff1673ffffffffffffffffffffffffffffffffffffffff1681526020018560030160009054906101000a900473ffffffffffffffffffffffffffffffffffffffff1673ffffffffffffffffffffffffffffffffffffffff1681526020018560060160049054906101000a900462ffffff1662ffffff1681526020018560000160009054906101000a900473ffffffffffffffffffffffffffffffffffffffff1673ffffffffffffffffffffffffffffffffffffffff16815260200161025842611b929190613934565b81526020018560040154815260200185600501548152602001600073ffffffffffffffffffffffffffffffffffffffff16815250905060008273ffffffffffffffffffffffffffffffffffffffff1663414bf389836040518263ffffffff1660e01b8152600401611c039190613a19565b6020604051808303816000875af1158015611c22573d6000803e3d6000fd5b505050506040513d601f19601f82011682018060405250810190611c469190613018565b90508093505050505b5b60018260060160076101000a81548160ff0219169083151502179055507f863b5571e6a1796b98827e87dd8c3005f47e4a32cbf1e168a2069819660c5a4f83604051611c9c9190612e64565b60405180910390a15050611cae61201e565b50565b6000600360009054906101000a900467ffffffffffffffff1667ffffffffffffffff16905090565b60045481565b611ce7612028565b6000611cf2826113a5565b90506040518060400160405280600115158152602001826001811115611d1b57611d1a612b63565b5b815250600260008473ffffffffffffffffffffffffffffffffffffffff1673ffffffffffffffffffffffffffffffffffffffff16815260200190815260200160002060008201518160000160006101000a81548160ff02191690831515021790555060208201518160000160016101000a81548160ff02191690836001811115611da857611da7612b63565b5b02179055509050507fafa89fc7587af96e98b0e772270511472f5fb27ef564e0ac81acbbbfc29f0dd782604051611ddf9190612e8e565b60405180910390a15050565b611df3612028565b600073ffffffffffffffffffffffffffffffffffffffff168173ffffffffffffffffffffffffffffffffffffffff1603611e655760006040517f1e4fbdf7000000000000000000000000000000000000000000000000000000008152600401611e5c9190612e8e565b60405180910390fd5b611e6e81612475565b50565b6000611e7b611cb1565b82611e869190612ed8565b611e8e61150b565b611e989190613934565b9050919050565b600260005403611edb576040517f3ee5aeb500000000000000000000000000000000000000000000000000000000815260040160405180910390fd5b6002600081905550565b611f61848573ffffffffffffffffffffffffffffffffffffffff166323b872dd868686604051602401611f1a93929190613a35565b604051602081830303815290604052915060e01b6020820180517bffffffffffffffffffffffffffffffffffffffffffffffffffffffff83818316178352505050506125d2565b50505050565b6000611f71611533565b73ffffffffffffffffffffffffffffffffffffffff1682604051611f9490613a9d565b60006040518083038185875af1925050503d8060008114611fd1576040519150601f19603f3d011682016040523d82523d6000602084013e611fd6565b606091505b505090508061201a576040517f08c379a000000000000000000000000000000000000000000000000000000000815260040161201190613afe565b60405180910390fd5b5050565b6001600081905550565b612030612669565b73ffffffffffffffffffffffffffffffffffffffff1661204e611533565b73ffffffffffffffffffffffffffffffffffffffff16146120ad57612071612669565b6040517f118cdaa70000000000000000000000000000000000000000000000000000000081526004016120a49190612e8e565b60405180910390fd5b565b600080600085905060008173ffffffffffffffffffffffffffffffffffffffff1663c45a01556040518163ffffffff1660e01b8152600401602060405180830381865afa158015612104573d6000803e3d6000fd5b505050506040513d601f19601f820116820180604052508101906121289190613b33565b9050600081905060008173ffffffffffffffffffffffffffffffffffffffff1663e6a4390589896040518363ffffffff1660e01b815260040161216c929190613b60565b602060405180830381865afa158015612189573d6000803e3d6000fd5b505050506040513d601f19601f820116820180604052508101906121ad9190613b33565b9050600073ffffffffffffffffffffffffffffffffffffffff168173ffffffffffffffffffffffffffffffffffffffff16146121f457600160009550955050505050612200565b60008095509550505050505b935093915050565b600080600085905060008173ffffffffffffffffffffffffffffffffffffffff1663c45a01556040518163ffffffff1660e01b8152600401602060405180830381865afa15801561225d573d6000803e3d6000fd5b505050506040513d601f19601f820116820180604052508101906122819190613b33565b90506000819050600060405180606001604052806101f462ffffff1662ffffff168152602001610bb862ffffff1662ffffff16815260200161271062ffffff1662ffffff16815250905060005b60038110156123e15760008373ffffffffffffffffffffffffffffffffffffffff16631698ee828b8b86866003811061230a57612309613655565b5b60200201516040518463ffffffff1660e01b815260040161232d93929190613b89565b602060405180830381865afa15801561234a573d6000803e3d6000fd5b505050506040513d601f19601f8201168201806040525081019061236e9190613b33565b9050600073ffffffffffffffffffffffffffffffffffffffff168173ffffffffffffffffffffffffffffffffffffffff16146123cd5760018383600381106123b9576123b8613655565b5b6020020151975097505050505050506123ee565b5080806123d9906131fe565b9150506122ce565b5060008095509550505050505b935093915050565b612470838473ffffffffffffffffffffffffffffffffffffffff1663a9059cbb85856040516024016124299291906135d3565b604051602081830303815290604052915060e01b6020820180517bffffffffffffffffffffffffffffffffffffffffffffffffffffffff83818316178352505050506125d2565b505050565b6000600160009054906101000a900473ffffffffffffffffffffffffffffffffffffffff16905081600160006101000a81548173ffffffffffffffffffffffffffffffffffffffff021916908373ffffffffffffffffffffffffffffffffffffffff1602179055508173ffffffffffffffffffffffffffffffffffffffff168173ffffffffffffffffffffffffffffffffffffffff167f8be0079c531659141344cd1fd0a4f28419497f9722a3daafe3b4186f6b6457e060405160405180910390a35050565b600080600090505b600484516125519190613900565b81116125c6576000816020860101519050837bffffffffffffffffffffffffffffffffffffffffffffffffffffffff1916817bffffffffffffffffffffffffffffffffffffffffffffffffffffffff1916036125b2576001925050506125cc565b5080806125be906131fe565b915050612543565b50600090505b92915050565b60006125fd828473ffffffffffffffffffffffffffffffffffffffff1661267190919063ffffffff16565b905060008151141580156126225750808060200190518101906126209190613628565b155b1561266457826040517f5274afe700000000000000000000000000000000000000000000000000000000815260040161265b9190612e8e565b60405180910390fd5b505050565b600033905090565b606061267f83836000612687565b905092915050565b6060814710156126ce57306040517fcd7860590000000000000000000000000000000000000000000000000000000081526004016126c59190612e8e565b60405180910390fd5b6000808573ffffffffffffffffffffffffffffffffffffffff1684866040516126f79190613c26565b60006040518083038185875af1925050503d8060008114612734576040519150601f19603f3d011682016040523d82523d6000602084013e612739565b606091505b5091509150612749868383612754565b925050509392505050565b60608261276957612764826127e3565b6127db565b60008251148015612791575060008473ffffffffffffffffffffffffffffffffffffffff163b145b156127d357836040517f9996b3150000000000000000000000000000000000000000000000000000000081526004016127ca9190612e8e565b60405180910390fd5b8190506127dc565b5b9392505050565b6000815111156127f65780518082602001fd5b6040517f1425ea4200000000000000000000000000000000000000000000000000000000815260040160405180910390fd5b604051806101400160405280600073ffffffffffffffffffffffffffffffffffffffff168152602001600073ffffffffffffffffffffffffffffffffffffffff168152602001600073ffffffffffffffffffffffffffffffffffffffff168152602001600073ffffffffffffffffffffffffffffffffffffffff1681526020016000815260200160008152602001600063ffffffff168152602001600062ffffff168152602001600015158152602001600060018111156128ec576128eb612b63565b5b81525090565b6000604051905090565b600080fd5b600080fd5b600073ffffffffffffffffffffffffffffffffffffffff82169050919050565b600061293182612906565b9050919050565b61294181612926565b811461294c57600080fd5b50565b60008135905061295e81612938565b92915050565b6000819050919050565b61297781612964565b811461298257600080fd5b50565b6000813590506129948161296e565b92915050565b600063ffffffff82169050919050565b6129b38161299a565b81146129be57600080fd5b50565b6000813590506129d0816129aa565b92915050565b60008060008060008060c087890312156129f3576129f26128fc565b5b6000612a0189828a0161294f565b9650506020612a1289828a0161294f565b9550506040612a2389828a01612985565b9450506060612a3489828a01612985565b9350506080612a4589828a0161294f565b92505060a0612a5689828a016129c1565b9150509295509295509295565b600067ffffffffffffffff82169050919050565b612a8081612a63565b8114612a8b57600080fd5b50565b600081359050612a9d81612a77565b92915050565b600060208284031215612ab957612ab86128fc565b5b6000612ac784828501612a8e565b91505092915050565b600060208284031215612ae657612ae56128fc565b5b6000612af484828501612985565b91505092915050565b612b0681612926565b82525050565b612b1581612964565b82525050565b612b248161299a565b82525050565b600062ffffff82169050919050565b612b4281612b2a565b82525050565b60008115159050919050565b612b5d81612b48565b82525050565b7f4e487b7100000000000000000000000000000000000000000000000000000000600052602160045260246000fd5b60028110612ba357612ba2612b63565b5b50565b6000819050612bb482612b92565b919050565b6000612bc482612ba6565b9050919050565b612bd481612bb9565b82525050565b61014082016000820151612bf16000850182612afd565b506020820151612c046020850182612afd565b506040820151612c176040850182612afd565b506060820151612c2a6060850182612afd565b506080820151612c3d6080850182612b0c565b5060a0820151612c5060a0850182612b0c565b5060c0820151612c6360c0850182612b1b565b5060e0820151612c7660e0850182612b39565b50610100820151612c8b610100850182612b54565b50610120820151612ca0610120850182612bcb565b50505050565b600061014082019050612cbc6000830184612bda565b92915050565b60028110612ccf57600080fd5b50565b600081359050612ce181612cc2565b92915050565b60008060008060808587031215612d0157612d006128fc565b5b6000612d0f8782880161294f565b9450506020612d2087828801612cd2565b9350506040612d318782880161294f565b9250506060612d428782880161294f565b91505092959194509250565b612d5781612b48565b82525050565b612d6681612b2a565b82525050565b6000604082019050612d816000830185612d4e565b612d8e6020830184612d5d565b9392505050565b60008060408385031215612dac57612dab6128fc565b5b6000612dba85828601612985565b9250506020612dcb858286016129c1565b9150509250929050565b600060208284031215612deb57612dea6128fc565b5b6000612df98482850161294f565b91505092915050565b612e0b81612bb9565b82525050565b6000604082019050612e266000830185612d4e565b612e336020830184612e02565b9392505050565b6000602082019050612e4f6000830184612e02565b92915050565b612e5e81612964565b82525050565b6000602082019050612e796000830184612e55565b92915050565b612e8881612926565b82525050565b6000602082019050612ea36000830184612e7f565b92915050565b7f4e487b7100000000000000000000000000000000000000000000000000000000600052601160045260246000fd5b6000612ee382612964565b9150612eee83612964565b9250828202612efc81612964565b91508282048414831517612f1357612f12612ea9565b5b5092915050565b600082825260208201905092915050565b7f496e73756666696369656e742066656500000000000000000000000000000000600082015250565b6000612f61601083612f1a565b9150612f6c82612f2b565b602082019050919050565b60006020820190508181036000830152612f9081612f54565b9050919050565b7f537761702070726963652063616e6e6f74206265207a65726f00000000000000600082015250565b6000612fcd601983612f1a565b9150612fd882612f97565b602082019050919050565b60006020820190508181036000830152612ffc81612fc0565b9050919050565b6000815190506130128161296e565b92915050565b60006020828403121561302e5761302d6128fc565b5b600061303c84828501613003565b91505092915050565b7f496e73756666696369656e7420746f6b656e2062616c616e6365000000000000600082015250565b600061307b601a83612f1a565b915061308682613045565b602082019050919050565b600060208201905081810360008301526130aa8161306e565b9050919050565b7f44657820726f75746572206e6f742077686974656c6973746564000000000000600082015250565b60006130e7601a83612f1a565b91506130f2826130b1565b602082019050919050565b60006020820190508181036000830152613116816130da565b9050919050565b7f54686520706f6f6c20646f65736e277420657869737400000000000000000000600082015250565b6000613153601683612f1a565b915061315e8261311d565b602082019050919050565b6000602082019050818103600083015261318281613146565b9050919050565b60006131948261299a565b915061319f8361299a565b92508282026131ad8161299a565b91508082146131bf576131be612ea9565b5b5092915050565b60006131d18261299a565b91506131dc8361299a565b9250828201905063ffffffff8111156131f8576131f7612ea9565b5b92915050565b600061320982612964565b91507fffffffffffffffffffffffffffffffffffffffffffffffffffffffffffffffff820361323b5761323a612ea9565b5b600182019050919050565b7f4e6f7420617574686f72697a656420746f2076696577207468697320706f736960008201527f74696f6e00000000000000000000000000000000000000000000000000000000602082015250565b60006132a2602483612f1a565b91506132ad82613246565b604082019050919050565b600060208201905081810360008301526132d181613295565b9050919050565b7f4e6f742074686520706f736974696f6e206f776e657200000000000000000000600082015250565b600061330e601683612f1a565b9150613319826132d8565b602082019050919050565b6000602082019050818103600083015261333d81613301565b9050919050565b6000819050919050565b600061336961336461335f8461299a565b613344565b612964565b9050919050565b6133798161334e565b82525050565b60006040820190506133946000830185612e55565b6133a16020830184613370565b9392505050565b7f506f736974696f6e20616c726561647920657865637574656400000000000000600082015250565b60006133de601983612f1a565b91506133e9826133a8565b602082019050919050565b6000602082019050818103600083015261340d816133d1565b9050919050565b7f41646472657373206973206e6f74206120636f6e747261637421000000000000600082015250565b600061344a601a83612f1a565b915061345582613414565b602082019050919050565b600060208201905081810360008301526134798161343d565b9050919050565b7f4e487b7100000000000000000000000000000000000000000000000000000000600052604160045260246000fd5b7f546865206465782061646472657373206973206e6f7420556e6973776170563360008201527f20666f726b206e6f7220556e6973776170563220666f726b0000000000000000602082015250565b600061350b603883612f1a565b9150613516826134af565b604082019050919050565b6000602082019050818103600083015261353a816134fe565b9050919050565b7f4f6e6c79207472616465206578656375746f722063616e20657865637574652060008201527f7377617000000000000000000000000000000000000000000000000000000000602082015250565b600061359d602483612f1a565b91506135a882613541565b604082019050919050565b600060208201905081810360008301526135cc81613590565b9050919050565b60006040820190506135e86000830185612e7f565b6135f56020830184612e55565b9392505050565b61360581612b48565b811461361057600080fd5b50565b600081519050613622816135fc565b92915050565b60006020828403121561363e5761363d6128fc565b5b600061364c84828501613613565b91505092915050565b7f4e487b7100000000000000000000000000000000000000000000000000000000600052603260045260246000fd5b600081519050919050565b600082825260208201905092915050565b6000819050602082019050919050565b60006136bc8383612afd565b60208301905092915050565b6000602082019050919050565b60006136e082613684565b6136ea818561368f565b93506136f5836136a0565b8060005b8381101561372657815161370d88826136b0565b9750613718836136c8565b9250506001810190506136f9565b5085935050505092915050565b600060a0820190506137486000830188612e55565b6137556020830187612e55565b818103604083015261376781866136d5565b90506137766060830185612e7f565b6137836080830184612e55565b9695505050505050565b600080fd5b6000601f19601f8301169050919050565b6137ac82613792565b810181811067ffffffffffffffff821117156137cb576137ca613480565b5b80604052505050565b60006137de6128f2565b90506137ea82826137a3565b919050565b600067ffffffffffffffff82111561380a57613809613480565b5b602082029050602081019050919050565b600080fd5b600061383361382e846137ef565b6137d4565b905080838252602082019050602084028301858111156138565761385561381b565b5b835b8181101561387f578061386b8882613003565b845260208401935050602081019050613858565b5050509392505050565b600082601f83011261389e5761389d61378d565b5b81516138ae848260208601613820565b91505092915050565b6000602082840312156138cd576138cc6128fc565b5b600082015167ffffffffffffffff8111156138eb576138ea612901565b5b6138f784828501613889565b91505092915050565b600061390b82612964565b915061391683612964565b925082820390508181111561392e5761392d612ea9565b5b92915050565b600061393f82612964565b915061394a83612964565b925082820190508082111561396257613961612ea9565b5b92915050565b61397181612906565b82525050565b6101008201600082015161398e6000850182612afd565b5060208201516139a16020850182612afd565b5060408201516139b46040850182612b39565b5060608201516139c76060850182612afd565b5060808201516139da6080850182612b0c565b5060a08201516139ed60a0850182612b0c565b5060c0820151613a0060c0850182612b0c565b5060e0820151613a1360e0850182613968565b50505050565b600061010082019050613a2f6000830184613977565b92915050565b6000606082019050613a4a6000830186612e7f565b613a576020830185612e7f565b613a646040830184612e55565b949350505050565b600081905092915050565b50565b6000613a87600083613a6c565b9150613a9282613a77565b600082019050919050565b6000613aa882613a7a565b9150819050919050565b7f466565207472616e73666572206661696c656400000000000000000000000000600082015250565b6000613ae8601383612f1a565b9150613af382613ab2565b602082019050919050565b60006020820190508181036000830152613b1781613adb565b9050919050565b600081519050613b2d81612938565b92915050565b600060208284031215613b4957613b486128fc565b5b6000613b5784828501613b1e565b91505092915050565b6000604082019050613b756000830185612e7f565b613b826020830184612e7f565b9392505050565b6000606082019050613b9e6000830186612e7f565b613bab6020830185612e7f565b613bb86040830184612d5d565b949350505050565b600081519050919050565b60005b83811015613be9578082015181840152602081019050613bce565b60008484015250505050565b6000613c0082613bc0565b613c0a8185613a6c565b9350613c1a818560208601613bcb565b80840191505092915050565b6000613c328284613bf5565b91508190509291505056fea2646970667358221220452228f1c17ddaa4c4b86c72b1d98563766556881a11621ab62a6c90b7ff018b64736f6c63430008140033",
  "linkReferences": {},
  "deployedLinkReferences": {}
}